{
  "_format": "hh-sol-artifact-1",
  "contractName": "Marketplace",
  "sourceName": "src/backend/contracts/Marketplace.sol",
  "abi": [
    {
      "inputs": [
        {
          "internalType": "uint256",
          "name": "_feePercent",
          "type": "uint256"
        }
      ],
      "stateMutability": "nonpayable",
      "type": "constructor"
    },
    {
      "anonymous": false,
      "inputs": [
        {
          "indexed": false,
          "internalType": "uint256",
          "name": "itemId",
          "type": "uint256"
        },
        {
          "indexed": true,
          "internalType": "address",
          "name": "nft",
          "type": "address"
        },
        {
          "indexed": false,
          "internalType": "uint256",
          "name": "tokenId",
          "type": "uint256"
        },
        {
          "indexed": false,
          "internalType": "uint256",
          "name": "price",
          "type": "uint256"
        },
        {
          "indexed": true,
          "internalType": "address",
          "name": "seller",
          "type": "address"
        },
        {
          "indexed": true,
          "internalType": "address",
          "name": "buyer",
          "type": "address"
        }
      ],
      "name": "Bought",
      "type": "event"
    },
    {
      "anonymous": false,
      "inputs": [
        {
          "indexed": false,
          "internalType": "uint256",
          "name": "itemId",
          "type": "uint256"
        },
        {
          "indexed": true,
          "internalType": "address",
          "name": "nft",
          "type": "address"
        },
        {
          "indexed": false,
          "internalType": "uint256",
          "name": "tokenId",
          "type": "uint256"
        },
        {
          "indexed": true,
          "internalType": "address",
          "name": "seller",
          "type": "address"
        }
      ],
      "name": "Minted",
      "type": "event"
    },
    {
      "anonymous": false,
      "inputs": [
        {
          "indexed": false,
          "internalType": "uint256",
          "name": "itemId",
          "type": "uint256"
        },
        {
          "indexed": false,
          "internalType": "uint256",
          "name": "price",
          "type": "uint256"
        },
        {
          "indexed": true,
          "internalType": "address",
          "name": "seller",
          "type": "address"
        }
      ],
      "name": "Offered",
      "type": "event"
    },
    {
      "anonymous": false,
      "inputs": [
        {
          "indexed": false,
          "internalType": "uint256",
          "name": "itemId",
          "type": "uint256"
        },
        {
          "indexed": true,
          "internalType": "address",
          "name": "seller",
          "type": "address"
        }
      ],
      "name": "Unlisted",
      "type": "event"
    },
    {
      "inputs": [],
      "name": "getAllNFTs",
      "outputs": [
        {
          "components": [
            {
              "internalType": "uint256",
              "name": "itemId",
              "type": "uint256"
            },
            {
              "internalType": "contract IERC721",
              "name": "nft",
              "type": "address"
            },
            {
              "internalType": "uint256",
              "name": "tokenId",
              "type": "uint256"
            },
            {
              "internalType": "uint256",
              "name": "price",
              "type": "uint256"
            },
            {
              "internalType": "address payable",
              "name": "seller",
              "type": "address"
            },
            {
              "internalType": "bool",
              "name": "onSale",
              "type": "bool"
            }
          ],
          "internalType": "struct Marketplace.Item[]",
          "name": "",
          "type": "tuple[]"
        }
      ],
      "stateMutability": "view",
      "type": "function"
    },
    {
      "inputs": [],
      "name": "getAllTransactions",
      "outputs": [
        {
          "components": [
            {
              "internalType": "uint256",
              "name": "transactionCount",
              "type": "uint256"
            },
            {
              "internalType": "address",
              "name": "from",
              "type": "address"
            },
            {
              "internalType": "address",
              "name": "to",
              "type": "address"
            },
            {
              "internalType": "uint256",
              "name": "amount",
              "type": "uint256"
            },
            {
              "internalType": "uint256",
              "name": "tokenId",
              "type": "uint256"
            },
            {
              "internalType": "uint256",
              "name": "timestamp",
              "type": "uint256"
            }
          ],
          "internalType": "struct Marketplace.Transaction[]",
          "name": "",
          "type": "tuple[]"
        }
      ],
      "stateMutability": "view",
      "type": "function"
    },
    {
      "inputs": [],
      "name": "getItemCount",
      "outputs": [
        {
          "internalType": "uint256",
          "name": "",
          "type": "uint256"
        }
      ],
      "stateMutability": "view",
      "type": "function"
    },
    {
      "inputs": [
        {
          "internalType": "uint256",
          "name": "_itemId",
          "type": "uint256"
        }
      ],
      "name": "getTotalPrice",
      "outputs": [
        {
          "internalType": "uint256",
          "name": "",
          "type": "uint256"
        }
      ],
      "stateMutability": "view",
      "type": "function"
    },
    {
      "inputs": [],
      "name": "getTransactionCount",
      "outputs": [
        {
          "internalType": "uint256",
          "name": "",
          "type": "uint256"
        }
      ],
      "stateMutability": "view",
      "type": "function"
    },
    {
      "inputs": [
        {
          "internalType": "uint256",
          "name": "id",
          "type": "uint256"
        },
        {
          "internalType": "uint256",
          "name": "_price",
          "type": "uint256"
        }
      ],
      "name": "listItem",
      "outputs": [],
      "stateMutability": "nonpayable",
      "type": "function"
    },
    {
      "inputs": [
        {
          "internalType": "contract IERC721",
          "name": "_nft",
          "type": "address"
        },
        {
          "internalType": "uint256",
          "name": "_tokenId",
          "type": "uint256"
        }
      ],
      "name": "makeItem",
      "outputs": [],
      "stateMutability": "nonpayable",
      "type": "function"
    },
    {
      "inputs": [
        {
          "internalType": "uint256",
          "name": "_itemId",
          "type": "uint256"
        }
      ],
      "name": "purchaseItem",
      "outputs": [],
      "stateMutability": "payable",
      "type": "function"
    },
    {
      "inputs": [
        {
          "internalType": "uint256",
          "name": "_tokenId",
          "type": "uint256"
        }
      ],
      "name": "unlistItem",
      "outputs": [],
      "stateMutability": "nonpayable",
      "type": "function"
    }
  ],
  "bytecode": "0x60c06040523480156200001157600080fd5b5060405162001f6d38038062001f6d83398181016040528101906200003791906200009c565b60016000819055503373ffffffffffffffffffffffffffffffffffffffff1660808173ffffffffffffffffffffffffffffffffffffffff1660601b815250508060a0818152505050620000ec565b6000815190506200009681620000d2565b92915050565b600060208284031215620000af57600080fd5b6000620000bf8482850162000085565b91505092915050565b6000819050919050565b620000dd81620000c8565b8114620000e957600080fd5b50565b60805160601c60a051611e58620001156000396000610aee01526000610eba0152611e586000f3fe6080604052600436106100865760003560e01c80637749cf23116100595780637749cf2314610133578063883efa671461015e578063ca7dd37514610187578063d38ea5bf146101c4578063e0391b09146101e057610086565b80631a1beae21461008b57806327506f53146100b45780632e7700f0146100df5780635a599da81461010a575b600080fd5b34801561009757600080fd5b506100b260048036038101906100ad9190611429565b61020b565b005b3480156100c057600080fd5b506100c9610429565b6040516100d69190611863565b60405180910390f35b3480156100eb57600080fd5b506100f4610619565b6040516101019190611965565b60405180910390f35b34801561011657600080fd5b50610131600480360381019061012c9190611465565b610623565b005b34801561013f57600080fd5b5061014861085e565b6040516101559190611965565b60405180910390f35b34801561016a57600080fd5b506101856004803603810190610180919061148e565b610868565b005b34801561019357600080fd5b506101ae60048036038101906101a99190611465565b610ae8565b6040516101bb9190611965565b60405180910390f35b6101de60048036038101906101d99190611465565b610b4b565b005b3480156101ec57600080fd5b506101f5611138565b6040516102029190611841565b60405180910390f35b60026000541415610251576040517f08c379a000000000000000000000000000000000000000000000000000000000815260040161024890611945565b60405180910390fd5b60026000819055506001600081548092919061026c90611c08565b91905055506040518060c0016040528060015481526020018373ffffffffffffffffffffffffffffffffffffffff168152602001828152602001600081526020013373ffffffffffffffffffffffffffffffffffffffff168152602001600015158152506003600060015481526020019081526020016000206000820151816000015560208201518160010160006101000a81548173ffffffffffffffffffffffffffffffffffffffff021916908373ffffffffffffffffffffffffffffffffffffffff160217905550604082015181600201556060820151816003015560808201518160040160006101000a81548173ffffffffffffffffffffffffffffffffffffffff021916908373ffffffffffffffffffffffffffffffffffffffff16021790555060a08201518160040160146101000a81548160ff0219169083151502179055509050503373ffffffffffffffffffffffffffffffffffffffff168273ffffffffffffffffffffffffffffffffffffffff167fdc4ff8fb799fb85686d69faeffeb3cb658a4f64349069703ddd4e8bf2ab5f43e60015484604051610415929190611980565b60405180910390a360016000819055505050565b60606000600254905060008167ffffffffffffffff811115610474577f4e487b7100000000000000000000000000000000000000000000000000000000600052604160045260246000fd5b6040519080825280602002602001820160405280156104ad57816020015b61049a611339565b8152602001906001900390816104925790505b50905060005b8281101561061057600460006001836104cc9190611a63565b81526020019081526020016000206040518060c0016040529081600082015481526020016001820160009054906101000a900473ffffffffffffffffffffffffffffffffffffffff1673ffffffffffffffffffffffffffffffffffffffff1673ffffffffffffffffffffffffffffffffffffffff1681526020016002820160009054906101000a900473ffffffffffffffffffffffffffffffffffffffff1673ffffffffffffffffffffffffffffffffffffffff1673ffffffffffffffffffffffffffffffffffffffff16815260200160038201548152602001600482015481526020016005820154815250508282815181106105f2577f4e487b7100000000000000000000000000000000000000000000000000000000600052603260045260246000fd5b6020026020010181905250808061060890611c08565b9150506104b3565b50809250505090565b6000600254905090565b60026000541415610669576040517f08c379a000000000000000000000000000000000000000000000000000000000815260040161066090611945565b60405180910390fd5b60026000819055506003600082815260200190815260200160002060040160009054906101000a900473ffffffffffffffffffffffffffffffffffffffff1673ffffffffffffffffffffffffffffffffffffffff163373ffffffffffffffffffffffffffffffffffffffff1614610715576040517f08c379a000000000000000000000000000000000000000000000000000000000815260040161070c90611885565b60405180910390fd5b6000600360008381526020019081526020016000206003018190555060006003600083815260200190815260200160002060040160146101000a81548160ff0219169083151502179055506003600082815260200190815260200160002060010160009054906101000a900473ffffffffffffffffffffffffffffffffffffffff1673ffffffffffffffffffffffffffffffffffffffff166323b872dd3033846040518463ffffffff1660e01b81526004016107d39392919061180a565b600060405180830381600087803b1580156107ed57600080fd5b505af1158015610801573d6000803e3d6000fd5b505050503373ffffffffffffffffffffffffffffffffffffffff167f398bd90ce129393b9155d48dccffb325e671f45c4250de457462a019268ff1f08260405161084b9190611965565b60405180910390a2600160008190555050565b6000600154905090565b600260005414156108ae576040517f08c379a00000000000000000000000000000000000000000000000000000000081526004016108a590611945565b60405180910390fd5b6002600081905550600081116108f9576040517f08c379a00000000000000000000000000000000000000000000000000000000081526004016108f0906118c5565b60405180910390fd5b6003600083815260200190815260200160002060040160009054906101000a900473ffffffffffffffffffffffffffffffffffffffff1673ffffffffffffffffffffffffffffffffffffffff163373ffffffffffffffffffffffffffffffffffffffff161461099d576040517f08c379a000000000000000000000000000000000000000000000000000000000815260040161099490611925565b60405180910390fd5b6003600083815260200190815260200160002060010160009054906101000a900473ffffffffffffffffffffffffffffffffffffffff1673ffffffffffffffffffffffffffffffffffffffff166323b872dd3330856040518463ffffffff1660e01b8152600401610a109392919061180a565b600060405180830381600087803b158015610a2a57600080fd5b505af1158015610a3e573d6000803e3d6000fd5b5050505080600360008481526020019081526020016000206003018190555060016003600084815260200190815260200160002060040160146101000a81548160ff0219169083151502179055503373ffffffffffffffffffffffffffffffffffffffff167f1ab3864560512bcd762f59576711bc5e90d3ef93e9253b43cd6be191b4a5814e8383604051610ad4929190611980565b60405180910390a260016000819055505050565b600060647f00000000000000000000000000000000000000000000000000000000000000006064610b199190611a63565b6003600085815260200190815260200160002060030154610b3a9190611aea565b610b449190611ab9565b9050919050565b60026000541415610b91576040517f08c379a0000000000000000000000000000000000000000000000000000000008152600401610b8890611945565b60405180910390fd5b60026000819055506000610ba482610ae8565b90506000600360008481526020019081526020016000209050600083118015610bcf57506001548311155b610c0e576040517f08c379a0000000000000000000000000000000000000000000000000000000008152600401610c05906118e5565b60405180910390fd5b81341015610c51576040517f08c379a0000000000000000000000000000000000000000000000000000000008152600401610c48906118a5565b60405180910390fd5b8060040160009054906101000a900473ffffffffffffffffffffffffffffffffffffffff1673ffffffffffffffffffffffffffffffffffffffff163373ffffffffffffffffffffffffffffffffffffffff161415610ce4576040517f08c379a0000000000000000000000000000000000000000000000000000000008152600401610cdb90611905565b60405180910390fd5b60026000815480929190610cf790611c08565b91905055506040518060c0016040528060025481526020018260040160009054906101000a900473ffffffffffffffffffffffffffffffffffffffff1673ffffffffffffffffffffffffffffffffffffffff1681526020013373ffffffffffffffffffffffffffffffffffffffff168152602001838152602001848152602001428152506004600060025481526020019081526020016000206000820151816000015560208201518160010160006101000a81548173ffffffffffffffffffffffffffffffffffffffff021916908373ffffffffffffffffffffffffffffffffffffffff16021790555060408201518160020160006101000a81548173ffffffffffffffffffffffffffffffffffffffff021916908373ffffffffffffffffffffffffffffffffffffffff160217905550606082015181600301556080820151816004015560a082015181600501559050508060040160009054906101000a900473ffffffffffffffffffffffffffffffffffffffff1673ffffffffffffffffffffffffffffffffffffffff166108fc82600301549081150290604051600060405180830381858888f19350505050158015610eb7573d6000803e3d6000fd5b507f000000000000000000000000000000000000000000000000000000000000000073ffffffffffffffffffffffffffffffffffffffff166108fc826003015484610f029190611b44565b9081150290604051600060405180830381858888f19350505050158015610f2d573d6000803e3d6000fd5b50336003600085815260200190815260200160002060040160006101000a81548173ffffffffffffffffffffffffffffffffffffffff021916908373ffffffffffffffffffffffffffffffffffffffff16021790555060006003600085815260200190815260200160002060040160146101000a81548160ff0219169083151502179055506003600084815260200190815260200160002060010160009054906101000a900473ffffffffffffffffffffffffffffffffffffffff1673ffffffffffffffffffffffffffffffffffffffff166323b872dd303384600201546040518463ffffffff1660e01b81526004016110299392919061180a565b600060405180830381600087803b15801561104357600080fd5b505af1158015611057573d6000803e3d6000fd5b505050503373ffffffffffffffffffffffffffffffffffffffff168160040160009054906101000a900473ffffffffffffffffffffffffffffffffffffffff1673ffffffffffffffffffffffffffffffffffffffff168260010160009054906101000a900473ffffffffffffffffffffffffffffffffffffffff1673ffffffffffffffffffffffffffffffffffffffff167f8b4c9c8a607d67b321582dd8461041b1dc2ceeca70c8b7f37f8e02095cf2e76d8685600201548660030154604051611123939291906119a9565b60405180910390a45050600160008190555050565b60606000600154905060008167ffffffffffffffff811115611183577f4e487b7100000000000000000000000000000000000000000000000000000000600052604160045260246000fd5b6040519080825280602002602001820160405280156111bc57816020015b6111a961139b565b8152602001906001900390816111a15790505b50905060005b8281101561133057600360006001836111db9190611a63565b81526020019081526020016000206040518060c0016040529081600082015481526020016001820160009054906101000a900473ffffffffffffffffffffffffffffffffffffffff1673ffffffffffffffffffffffffffffffffffffffff1673ffffffffffffffffffffffffffffffffffffffff16815260200160028201548152602001600382015481526020016004820160009054906101000a900473ffffffffffffffffffffffffffffffffffffffff1673ffffffffffffffffffffffffffffffffffffffff1673ffffffffffffffffffffffffffffffffffffffff1681526020016004820160149054906101000a900460ff161515151581525050828281518110611312577f4e487b7100000000000000000000000000000000000000000000000000000000600052603260045260246000fd5b6020026020010181905250808061132890611c08565b9150506111c2565b50809250505090565b6040518060c0016040528060008152602001600073ffffffffffffffffffffffffffffffffffffffff168152602001600073ffffffffffffffffffffffffffffffffffffffff1681526020016000815260200160008152602001600081525090565b6040518060c0016040528060008152602001600073ffffffffffffffffffffffffffffffffffffffff1681526020016000815260200160008152602001600073ffffffffffffffffffffffffffffffffffffffff1681526020016000151581525090565b60008135905061140e81611df4565b92915050565b60008135905061142381611e0b565b92915050565b6000806040838503121561143c57600080fd5b600061144a858286016113ff565b925050602061145b85828601611414565b9150509250929050565b60006020828403121561147757600080fd5b600061148584828501611414565b91505092915050565b600080604083850312156114a157600080fd5b60006114af85828601611414565b92505060206114c085828601611414565b9150509250929050565b60006114d683836116f6565b60c08301905092915050565b60006114ee8383611771565b60c08301905092915050565b61150381611b8a565b82525050565b61151281611b78565b82525050565b61152181611b78565b82525050565b600061153282611a00565b61153c8185611a30565b9350611547836119e0565b8060005b8381101561157857815161155f88826114ca565b975061156a83611a16565b92505060018101905061154b565b5085935050505092915050565b600061159082611a0b565b61159a8185611a41565b93506115a5836119f0565b8060005b838110156115d65781516115bd88826114e2565b97506115c883611a23565b9250506001810190506115a9565b5085935050505092915050565b6115ec81611b9c565b82525050565b6115fb81611be4565b82525050565b600061160e601683611a52565b915061161982611caf565b602082019050919050565b6000611631603383611a52565b915061163c82611cd8565b604082019050919050565b6000611654601c83611a52565b915061165f82611d27565b602082019050919050565b6000611677601283611a52565b915061168282611d50565b602082019050919050565b600061169a601883611a52565b91506116a582611d79565b602082019050919050565b60006116bd601583611a52565b91506116c882611da2565b602082019050919050565b60006116e0601f83611a52565b91506116eb82611dcb565b602082019050919050565b60c08201600082015161170c60008501826117ec565b50602082015161171f60208501826115f2565b50604082015161173260408501826117ec565b50606082015161174560608501826117ec565b50608082015161175860808501826114fa565b5060a082015161176b60a08501826115e3565b50505050565b60c08201600082015161178760008501826117ec565b50602082015161179a6020850182611509565b5060408201516117ad6040850182611509565b5060608201516117c060608501826117ec565b5060808201516117d360808501826117ec565b5060a08201516117e660a08501826117ec565b50505050565b6117f581611bda565b82525050565b61180481611bda565b82525050565b600060608201905061181f6000830186611518565b61182c6020830185611518565b61183960408301846117fb565b949350505050565b6000602082019050818103600083015261185b8184611527565b905092915050565b6000602082019050818103600083015261187d8184611585565b905092915050565b6000602082019050818103600083015261189e81611601565b9050919050565b600060208201905081810360008301526118be81611624565b9050919050565b600060208201905081810360008301526118de81611647565b9050919050565b600060208201905081810360008301526118fe8161166a565b9050919050565b6000602082019050818103600083015261191e8161168d565b9050919050565b6000602082019050818103600083015261193e816116b0565b9050919050565b6000602082019050818103600083015261195e816116d3565b9050919050565b600060208201905061197a60008301846117fb565b92915050565b600060408201905061199560008301856117fb565b6119a260208301846117fb565b9392505050565b60006060820190506119be60008301866117fb565b6119cb60208301856117fb565b6119d860408301846117fb565b949350505050565b6000819050602082019050919050565b6000819050602082019050919050565b600081519050919050565b600081519050919050565b6000602082019050919050565b6000602082019050919050565b600082825260208201905092915050565b600082825260208201905092915050565b600082825260208201905092915050565b6000611a6e82611bda565b9150611a7983611bda565b9250827fffffffffffffffffffffffffffffffffffffffffffffffffffffffffffffffff03821115611aae57611aad611c51565b5b828201905092915050565b6000611ac482611bda565b9150611acf83611bda565b925082611adf57611ade611c80565b5b828204905092915050565b6000611af582611bda565b9150611b0083611bda565b9250817fffffffffffffffffffffffffffffffffffffffffffffffffffffffffffffffff0483118215151615611b3957611b38611c51565b5b828202905092915050565b6000611b4f82611bda565b9150611b5a83611bda565b925082821015611b6d57611b6c611c51565b5b828203905092915050565b6000611b8382611bba565b9050919050565b6000611b9582611bba565b9050919050565b60008115159050919050565b6000611bb382611b78565b9050919050565b600073ffffffffffffffffffffffffffffffffffffffff82169050919050565b6000819050919050565b6000611bef82611bf6565b9050919050565b6000611c0182611bba565b9050919050565b6000611c1382611bda565b91507fffffffffffffffffffffffffffffffffffffffffffffffffffffffffffffffff821415611c4657611c45611c51565b5b600182019050919050565b7f4e487b7100000000000000000000000000000000000000000000000000000000600052601160045260246000fd5b7f4e487b7100000000000000000000000000000000000000000000000000000000600052601260045260246000fd5b7f596f7520646f6e2774206f776e2074686973206e667400000000000000000000600082015250565b7f6e6f7420656e6f75676820657468657220746f20636f766572206974656d207060008201527f7269636520616e64206d61726b65742066656500000000000000000000000000602082015250565b7f5072696365206d7573742062652067726561746572203e207a65726f00000000600082015250565b7f6974656d20646f65736e27742065786973740000000000000000000000000000600082015250565b7f596f7520616c7265616479206f776e20746865206e6674210000000000000000600082015250565b7f596f7520646f6e2774206f776e20746865206e66740000000000000000000000600082015250565b7f5265656e7472616e637947756172643a207265656e7472616e742063616c6c00600082015250565b611dfd81611ba8565b8114611e0857600080fd5b50565b611e1481611bda565b8114611e1f57600080fd5b5056fea26469706673582212207130bc7b9c34f6a602892409a4cd16dc42f5fd8c99182b9d04d3a6653481762664736f6c63430008040033",
  "linkReferences": {},
  "deployedLinkReferences": {}
}