{
  "_format": "hh-sol-artifact-1",
  "contractName": "Marketplace",
  "sourceName": "src/backend/contracts/Marketplace.sol",
  "abi": [
    {
      "inputs": [
        {
          "internalType": "uint256",
          "name": "_feePercent",
          "type": "uint256"
        }
      ],
      "stateMutability": "nonpayable",
      "type": "constructor"
    },
    {
      "anonymous": false,
      "inputs": [
        {
          "indexed": false,
          "internalType": "uint256",
          "name": "itemId",
          "type": "uint256"
        },
        {
          "indexed": true,
          "internalType": "address",
          "name": "nft",
          "type": "address"
        },
        {
          "indexed": false,
          "internalType": "uint256",
          "name": "tokenId",
          "type": "uint256"
        },
        {
          "indexed": false,
          "internalType": "uint256",
          "name": "price",
          "type": "uint256"
        },
        {
          "indexed": true,
          "internalType": "address",
          "name": "seller",
          "type": "address"
        },
        {
          "indexed": true,
          "internalType": "address",
          "name": "buyer",
          "type": "address"
        }
      ],
      "name": "Bought",
      "type": "event"
    },
    {
      "anonymous": false,
      "inputs": [
        {
          "indexed": false,
          "internalType": "uint256",
          "name": "itemId",
          "type": "uint256"
        },
        {
          "indexed": true,
          "internalType": "address",
          "name": "nft",
          "type": "address"
        },
        {
          "indexed": false,
          "internalType": "uint256",
          "name": "tokenId",
          "type": "uint256"
        },
        {
          "indexed": true,
          "internalType": "address",
          "name": "seller",
          "type": "address"
        }
      ],
      "name": "Minted",
      "type": "event"
    },
    {
      "anonymous": false,
      "inputs": [
        {
          "indexed": false,
          "internalType": "uint256",
          "name": "itemId",
          "type": "uint256"
        },
        {
          "indexed": false,
          "internalType": "uint256",
          "name": "price",
          "type": "uint256"
        },
        {
          "indexed": true,
          "internalType": "address",
          "name": "seller",
          "type": "address"
        }
      ],
      "name": "Offered",
      "type": "event"
    },
    {
      "anonymous": false,
      "inputs": [
        {
          "indexed": false,
          "internalType": "uint256",
          "name": "itemId",
          "type": "uint256"
        },
        {
          "indexed": true,
          "internalType": "address",
          "name": "seller",
          "type": "address"
        }
      ],
      "name": "Unlisted",
      "type": "event"
    },
    {
      "inputs": [],
      "name": "feeAccount",
      "outputs": [
        {
          "internalType": "address payable",
          "name": "",
          "type": "address"
        }
      ],
      "stateMutability": "view",
      "type": "function"
    },
    {
      "inputs": [],
      "name": "feePercent",
      "outputs": [
        {
          "internalType": "uint256",
          "name": "",
          "type": "uint256"
        }
      ],
      "stateMutability": "view",
      "type": "function"
    },
    {
      "inputs": [
        {
          "internalType": "uint256",
          "name": "_itemId",
          "type": "uint256"
        }
      ],
      "name": "getTotalPrice",
      "outputs": [
        {
          "internalType": "uint256",
          "name": "",
          "type": "uint256"
        }
      ],
      "stateMutability": "view",
      "type": "function"
    },
    {
      "inputs": [],
      "name": "itemCount",
      "outputs": [
        {
          "internalType": "uint256",
          "name": "",
          "type": "uint256"
        }
      ],
      "stateMutability": "view",
      "type": "function"
    },
    {
      "inputs": [
        {
          "internalType": "uint256",
          "name": "",
          "type": "uint256"
        }
      ],
      "name": "items",
      "outputs": [
        {
          "internalType": "uint256",
          "name": "itemId",
          "type": "uint256"
        },
        {
          "internalType": "contract IERC721",
          "name": "nft",
          "type": "address"
        },
        {
          "internalType": "uint256",
          "name": "tokenId",
          "type": "uint256"
        },
        {
          "internalType": "uint256",
          "name": "price",
          "type": "uint256"
        },
        {
          "internalType": "address payable",
          "name": "seller",
          "type": "address"
        },
        {
          "internalType": "bool",
          "name": "onSale",
          "type": "bool"
        }
      ],
      "stateMutability": "view",
      "type": "function"
    },
    {
      "inputs": [
        {
          "internalType": "uint256",
          "name": "id",
          "type": "uint256"
        },
        {
          "internalType": "uint256",
          "name": "_price",
          "type": "uint256"
        }
      ],
      "name": "listItem",
      "outputs": [],
      "stateMutability": "nonpayable",
      "type": "function"
    },
    {
      "inputs": [
        {
          "internalType": "contract IERC721",
          "name": "_nft",
          "type": "address"
        },
        {
          "internalType": "uint256",
          "name": "_tokenId",
          "type": "uint256"
        }
      ],
      "name": "makeItem",
      "outputs": [],
      "stateMutability": "nonpayable",
      "type": "function"
    },
    {
      "inputs": [
        {
          "internalType": "uint256",
          "name": "_itemId",
          "type": "uint256"
        }
      ],
      "name": "purchaseItem",
      "outputs": [],
      "stateMutability": "payable",
      "type": "function"
    },
    {
      "inputs": [
        {
          "internalType": "uint256",
          "name": "_tokenId",
          "type": "uint256"
        }
      ],
      "name": "unlistItem",
      "outputs": [],
      "stateMutability": "nonpayable",
      "type": "function"
    }
  ],
  "bytecode": "0x60c06040523480156200001157600080fd5b50604051620016543803806200165483398181016040528101906200003791906200009c565b60016000819055503373ffffffffffffffffffffffffffffffffffffffff1660808173ffffffffffffffffffffffffffffffffffffffff1660601b815250508060a0818152505050620000ec565b6000815190506200009681620000d2565b92915050565b600060208284031215620000af57600080fd5b6000620000bf8482850162000085565b91505092915050565b6000819050919050565b620000dd81620000c8565b8114620000e957600080fd5b50565b60805160601c60a05161153162000123600039600081816105e5015261082b0152600081816105bb0152610a4c01526115316000f3fe6080604052600436106100865760003560e01c80637fd6f15c116100595780637fd6f15c14610133578063883efa671461015e578063bfb231d214610187578063ca7dd375146101c9578063d38ea5bf1461020657610086565b80631a1beae21461008b5780635a599da8146100b457806365e17c9d146100dd5780636bfb0d0114610108575b600080fd5b34801561009757600080fd5b506100b260048036038101906100ad9190610d3c565b610222565b005b3480156100c057600080fd5b506100db60048036038101906100d69190610d78565b610469565b005b3480156100e957600080fd5b506100f26105b9565b6040516100ff9190610f1d565b60405180910390f35b34801561011457600080fd5b5061011d6105dd565b60405161012a919061104f565b60405180910390f35b34801561013f57600080fd5b506101486105e3565b604051610155919061104f565b60405180910390f35b34801561016a57600080fd5b5061018560048036038101906101809190610da1565b610607565b005b34801561019357600080fd5b506101ae60048036038101906101a99190610d78565b61079c565b6040516101c09695949392919061106a565b60405180910390f35b3480156101d557600080fd5b506101f060048036038101906101eb9190610d78565b610825565b6040516101fd919061104f565b60405180910390f35b610220600480360381019061021b9190610d78565b610888565b005b61022a610cb8565b6001600081548092919061023d906112e1565b91905055508173ffffffffffffffffffffffffffffffffffffffff166323b872dd3330846040518463ffffffff1660e01b815260040161027f93929190610f38565b600060405180830381600087803b15801561029957600080fd5b505af11580156102ad573d6000803e3d6000fd5b505050506040518060c0016040528060015481526020018373ffffffffffffffffffffffffffffffffffffffff168152602001828152602001600081526020013373ffffffffffffffffffffffffffffffffffffffff168152602001600015158152506002600060015481526020019081526020016000206000820151816000015560208201518160010160006101000a81548173ffffffffffffffffffffffffffffffffffffffff021916908373ffffffffffffffffffffffffffffffffffffffff160217905550604082015181600201556060820151816003015560808201518160040160006101000a81548173ffffffffffffffffffffffffffffffffffffffff021916908373ffffffffffffffffffffffffffffffffffffffff16021790555060a08201518160040160146101000a81548160ff0219169083151502179055509050503373ffffffffffffffffffffffffffffffffffffffff168273ffffffffffffffffffffffffffffffffffffffff167fdc4ff8fb799fb85686d69faeffeb3cb658a4f64349069703ddd4e8bf2ab5f43e600154846040516104559291906110cb565b60405180910390a3610465610d08565b5050565b610471610cb8565b6002600082815260200190815260200160002060040160009054906101000a900473ffffffffffffffffffffffffffffffffffffffff1673ffffffffffffffffffffffffffffffffffffffff163373ffffffffffffffffffffffffffffffffffffffff1614610515576040517f08c379a000000000000000000000000000000000000000000000000000000000815260040161050c90610f6f565b60405180910390fd5b6000600260008381526020019081526020016000206003018190555060006002600083815260200190815260200160002060040160146101000a81548160ff0219169083151502179055503373ffffffffffffffffffffffffffffffffffffffff167f398bd90ce129393b9155d48dccffb325e671f45c4250de457462a019268ff1f0826040516105a6919061104f565b60405180910390a26105b6610d08565b50565b7f000000000000000000000000000000000000000000000000000000000000000081565b60015481565b7f000000000000000000000000000000000000000000000000000000000000000081565b61060f610cb8565b60008111610652576040517f08c379a000000000000000000000000000000000000000000000000000000000815260040161064990610faf565b60405180910390fd5b6002600083815260200190815260200160002060040160009054906101000a900473ffffffffffffffffffffffffffffffffffffffff1673ffffffffffffffffffffffffffffffffffffffff163373ffffffffffffffffffffffffffffffffffffffff16146106f6576040517f08c379a00000000000000000000000000000000000000000000000000000000081526004016106ed9061100f565b60405180910390fd5b80600260008481526020019081526020016000206003018190555060016002600084815260200190815260200160002060040160146101000a81548160ff0219169083151502179055503373ffffffffffffffffffffffffffffffffffffffff167f1ab3864560512bcd762f59576711bc5e90d3ef93e9253b43cd6be191b4a5814e83836040516107889291906110cb565b60405180910390a2610798610d08565b5050565b60026020528060005260406000206000915090508060000154908060010160009054906101000a900473ffffffffffffffffffffffffffffffffffffffff16908060020154908060030154908060040160009054906101000a900473ffffffffffffffffffffffffffffffffffffffff16908060040160149054906101000a900460ff16905086565b600060647f00000000000000000000000000000000000000000000000000000000000000006064610856919061113c565b600260008581526020019081526020016000206003015461087791906111c3565b6108819190611192565b9050919050565b610890610cb8565b600061089b82610825565b905060006002600084815260200190815260200160002090506000831180156108c657506001548311155b610905576040517f08c379a00000000000000000000000000000000000000000000000000000000081526004016108fc90610fcf565b60405180910390fd5b81341015610948576040517f08c379a000000000000000000000000000000000000000000000000000000000815260040161093f90610f8f565b60405180910390fd5b8060040160009054906101000a900473ffffffffffffffffffffffffffffffffffffffff1673ffffffffffffffffffffffffffffffffffffffff163373ffffffffffffffffffffffffffffffffffffffff1614156109db576040517f08c379a00000000000000000000000000000000000000000000000000000000081526004016109d290610fef565b60405180910390fd5b8060040160009054906101000a900473ffffffffffffffffffffffffffffffffffffffff1673ffffffffffffffffffffffffffffffffffffffff166108fc82600301549081150290604051600060405180830381858888f19350505050158015610a49573d6000803e3d6000fd5b507f000000000000000000000000000000000000000000000000000000000000000073ffffffffffffffffffffffffffffffffffffffff166108fc826003015484610a94919061121d565b9081150290604051600060405180830381858888f19350505050158015610abf573d6000803e3d6000fd5b50336002600085815260200190815260200160002060040160006101000a81548173ffffffffffffffffffffffffffffffffffffffff021916908373ffffffffffffffffffffffffffffffffffffffff16021790555060006002600085815260200190815260200160002060040160146101000a81548160ff0219169083151502179055508060010160009054906101000a900473ffffffffffffffffffffffffffffffffffffffff1673ffffffffffffffffffffffffffffffffffffffff166323b872dd303384600201546040518463ffffffff1660e01b8152600401610ba993929190610f38565b600060405180830381600087803b158015610bc357600080fd5b505af1158015610bd7573d6000803e3d6000fd5b505050503373ffffffffffffffffffffffffffffffffffffffff168160040160009054906101000a900473ffffffffffffffffffffffffffffffffffffffff1673ffffffffffffffffffffffffffffffffffffffff168260010160009054906101000a900473ffffffffffffffffffffffffffffffffffffffff1673ffffffffffffffffffffffffffffffffffffffff167f8b4c9c8a607d67b321582dd8461041b1dc2ceeca70c8b7f37f8e02095cf2e76d8685600201548660030154604051610ca3939291906110f4565b60405180910390a45050610cb5610d08565b50565b60026000541415610cfe576040517f08c379a0000000000000000000000000000000000000000000000000000000008152600401610cf59061102f565b60405180910390fd5b6002600081905550565b6001600081905550565b600081359050610d21816114cd565b92915050565b600081359050610d36816114e4565b92915050565b60008060408385031215610d4f57600080fd5b6000610d5d85828601610d12565b9250506020610d6e85828601610d27565b9150509250929050565b600060208284031215610d8a57600080fd5b6000610d9884828501610d27565b91505092915050565b60008060408385031215610db457600080fd5b6000610dc285828601610d27565b9250506020610dd385828601610d27565b9150509250929050565b610de681611263565b82525050565b610df581611251565b82525050565b610e0481611275565b82525050565b610e13816112bd565b82525050565b6000610e2660168361112b565b9150610e3182611388565b602082019050919050565b6000610e4960338361112b565b9150610e54826113b1565b604082019050919050565b6000610e6c601c8361112b565b9150610e7782611400565b602082019050919050565b6000610e8f60128361112b565b9150610e9a82611429565b602082019050919050565b6000610eb260188361112b565b9150610ebd82611452565b602082019050919050565b6000610ed560158361112b565b9150610ee08261147b565b602082019050919050565b6000610ef8601f8361112b565b9150610f03826114a4565b602082019050919050565b610f17816112b3565b82525050565b6000602082019050610f326000830184610ddd565b92915050565b6000606082019050610f4d6000830186610dec565b610f5a6020830185610dec565b610f676040830184610f0e565b949350505050565b60006020820190508181036000830152610f8881610e19565b9050919050565b60006020820190508181036000830152610fa881610e3c565b9050919050565b60006020820190508181036000830152610fc881610e5f565b9050919050565b60006020820190508181036000830152610fe881610e82565b9050919050565b6000602082019050818103600083015261100881610ea5565b9050919050565b6000602082019050818103600083015261102881610ec8565b9050919050565b6000602082019050818103600083015261104881610eeb565b9050919050565b60006020820190506110646000830184610f0e565b92915050565b600060c08201905061107f6000830189610f0e565b61108c6020830188610e0a565b6110996040830187610f0e565b6110a66060830186610f0e565b6110b36080830185610ddd565b6110c060a0830184610dfb565b979650505050505050565b60006040820190506110e06000830185610f0e565b6110ed6020830184610f0e565b9392505050565b60006060820190506111096000830186610f0e565b6111166020830185610f0e565b6111236040830184610f0e565b949350505050565b600082825260208201905092915050565b6000611147826112b3565b9150611152836112b3565b9250827fffffffffffffffffffffffffffffffffffffffffffffffffffffffffffffffff038211156111875761118661132a565b5b828201905092915050565b600061119d826112b3565b91506111a8836112b3565b9250826111b8576111b7611359565b5b828204905092915050565b60006111ce826112b3565b91506111d9836112b3565b9250817fffffffffffffffffffffffffffffffffffffffffffffffffffffffffffffffff04831182151516156112125761121161132a565b5b828202905092915050565b6000611228826112b3565b9150611233836112b3565b9250828210156112465761124561132a565b5b828203905092915050565b600061125c82611293565b9050919050565b600061126e82611293565b9050919050565b60008115159050919050565b600061128c82611251565b9050919050565b600073ffffffffffffffffffffffffffffffffffffffff82169050919050565b6000819050919050565b60006112c8826112cf565b9050919050565b60006112da82611293565b9050919050565b60006112ec826112b3565b91507fffffffffffffffffffffffffffffffffffffffffffffffffffffffffffffffff82141561131f5761131e61132a565b5b600182019050919050565b7f4e487b7100000000000000000000000000000000000000000000000000000000600052601160045260246000fd5b7f4e487b7100000000000000000000000000000000000000000000000000000000600052601260045260246000fd5b7f596f7520646f6e2774206f776e2074686973206e667400000000000000000000600082015250565b7f6e6f7420656e6f75676820657468657220746f20636f766572206974656d207060008201527f7269636520616e64206d61726b65742066656500000000000000000000000000602082015250565b7f5072696365206d7573742062652067726561746572203e207a65726f00000000600082015250565b7f6974656d20646f65736e27742065786973740000000000000000000000000000600082015250565b7f596f7520616c7265616479206f776e20746865206e6674210000000000000000600082015250565b7f596f7520646f6e2774206f776e20746865206e66740000000000000000000000600082015250565b7f5265656e7472616e637947756172643a207265656e7472616e742063616c6c00600082015250565b6114d681611281565b81146114e157600080fd5b50565b6114ed816112b3565b81146114f857600080fd5b5056fea264697066735822122066e95a7f5cb6028cd8567d9b3222d06345b18dc7bf5f7446f89fb2a623b3fda264736f6c63430008040033",
  "linkReferences": {},
  "deployedLinkReferences": {}
}