{
  "_format": "hh-sol-artifact-1",
  "contractName": "Marketplace",
  "sourceName": "src/backend/contracts/Marketplace.sol",
  "abi": [
    {
      "inputs": [
        {
          "internalType": "uint256",
          "name": "_feePercent",
          "type": "uint256"
        }
      ],
      "stateMutability": "nonpayable",
      "type": "constructor"
    },
    {
      "anonymous": false,
      "inputs": [
        {
          "indexed": false,
          "internalType": "uint256",
          "name": "itemId",
          "type": "uint256"
        },
        {
          "indexed": true,
          "internalType": "address",
          "name": "nft",
          "type": "address"
        },
        {
          "indexed": false,
          "internalType": "uint256",
          "name": "tokenId",
          "type": "uint256"
        },
        {
          "indexed": false,
          "internalType": "uint256",
          "name": "price",
          "type": "uint256"
        },
        {
          "indexed": true,
          "internalType": "address",
          "name": "seller",
          "type": "address"
        },
        {
          "indexed": true,
          "internalType": "address",
          "name": "buyer",
          "type": "address"
        }
      ],
      "name": "Bought",
      "type": "event"
    },
    {
      "anonymous": false,
      "inputs": [
        {
          "indexed": false,
          "internalType": "uint256",
          "name": "itemId",
          "type": "uint256"
        },
        {
          "indexed": true,
          "internalType": "address",
          "name": "nft",
          "type": "address"
        },
        {
          "indexed": false,
          "internalType": "uint256",
          "name": "tokenId",
          "type": "uint256"
        },
        {
          "indexed": true,
          "internalType": "address",
          "name": "seller",
          "type": "address"
        }
      ],
      "name": "Minted",
      "type": "event"
    },
    {
      "anonymous": false,
      "inputs": [
        {
          "indexed": false,
          "internalType": "uint256",
          "name": "itemId",
          "type": "uint256"
        },
        {
          "indexed": false,
          "internalType": "uint256",
          "name": "price",
          "type": "uint256"
        },
        {
          "indexed": true,
          "internalType": "address",
          "name": "seller",
          "type": "address"
        }
      ],
      "name": "Offered",
      "type": "event"
    },
    {
      "inputs": [],
      "name": "feeAccount",
      "outputs": [
        {
          "internalType": "address payable",
          "name": "",
          "type": "address"
        }
      ],
      "stateMutability": "view",
      "type": "function"
    },
    {
      "inputs": [],
      "name": "feePercent",
      "outputs": [
        {
          "internalType": "uint256",
          "name": "",
          "type": "uint256"
        }
      ],
      "stateMutability": "view",
      "type": "function"
    },
    {
      "inputs": [
        {
          "internalType": "uint256",
          "name": "_itemId",
          "type": "uint256"
        }
      ],
      "name": "getTotalPrice",
      "outputs": [
        {
          "internalType": "uint256",
          "name": "",
          "type": "uint256"
        }
      ],
      "stateMutability": "view",
      "type": "function"
    },
    {
      "inputs": [],
      "name": "itemCount",
      "outputs": [
        {
          "internalType": "uint256",
          "name": "",
          "type": "uint256"
        }
      ],
      "stateMutability": "view",
      "type": "function"
    },
    {
      "inputs": [
        {
          "internalType": "uint256",
          "name": "",
          "type": "uint256"
        }
      ],
      "name": "items",
      "outputs": [
        {
          "internalType": "uint256",
          "name": "itemId",
          "type": "uint256"
        },
        {
          "internalType": "contract IERC721",
          "name": "nft",
          "type": "address"
        },
        {
          "internalType": "uint256",
          "name": "tokenId",
          "type": "uint256"
        },
        {
          "internalType": "uint256",
          "name": "price",
          "type": "uint256"
        },
        {
          "internalType": "address payable",
          "name": "seller",
          "type": "address"
        },
        {
          "internalType": "bool",
          "name": "onSale",
          "type": "bool"
        }
      ],
      "stateMutability": "view",
      "type": "function"
    },
    {
      "inputs": [
        {
          "internalType": "uint256",
          "name": "id",
          "type": "uint256"
        },
        {
          "internalType": "uint256",
          "name": "_price",
          "type": "uint256"
        }
      ],
      "name": "listItem",
      "outputs": [],
      "stateMutability": "nonpayable",
      "type": "function"
    },
    {
      "inputs": [
        {
          "internalType": "contract IERC721",
          "name": "_nft",
          "type": "address"
        },
        {
          "internalType": "uint256",
          "name": "_tokenId",
          "type": "uint256"
        }
      ],
      "name": "makeItem",
      "outputs": [],
      "stateMutability": "nonpayable",
      "type": "function"
    },
    {
      "inputs": [
        {
          "internalType": "uint256",
          "name": "_itemId",
          "type": "uint256"
        }
      ],
      "name": "purchaseItem",
      "outputs": [],
      "stateMutability": "payable",
      "type": "function"
    }
  ],
  "bytecode": "0x60c060405234801561001057600080fd5b50604051620013c0380380620013c083398181016040528101906100349190610096565b60016000819055503373ffffffffffffffffffffffffffffffffffffffff1660808173ffffffffffffffffffffffffffffffffffffffff1660601b815250508060a08181525050506100e0565b600081519050610090816100c9565b92915050565b6000602082840312156100a857600080fd5b60006100b684828501610081565b91505092915050565b6000819050919050565b6100d2816100bf565b81146100dd57600080fd5b50565b60805160601c60a0516112a962000117600039600081816104a7015261068f01526000818161047d01526108f601526112a96000f3fe60806040526004361061007b5760003560e01c8063883efa671161004e578063883efa671461012a578063bfb231d214610153578063ca7dd37514610195578063d38ea5bf146101d25761007b565b80631a1beae21461008057806365e17c9d146100a95780636bfb0d01146100d45780637fd6f15c146100ff575b600080fd5b34801561008c57600080fd5b506100a760048036038101906100a29190610b8c565b6101ee565b005b3480156100b557600080fd5b506100be61047b565b6040516100cb9190610d27565b60405180910390f35b3480156100e057600080fd5b506100e961049f565b6040516100f69190610e19565b60405180910390f35b34801561010b57600080fd5b506101146104a5565b6040516101219190610e19565b60405180910390f35b34801561013657600080fd5b50610151600480360381019061014c9190610bf1565b6104c9565b005b34801561015f57600080fd5b5061017a60048036038101906101759190610bc8565b610600565b60405161018c96959493929190610e34565b60405180910390f35b3480156101a157600080fd5b506101bc60048036038101906101b79190610bc8565b610689565b6040516101c99190610e19565b60405180910390f35b6101ec60048036038101906101e79190610bc8565b6106ec565b005b60026000541415610234576040517f08c379a000000000000000000000000000000000000000000000000000000000815260040161022b90610df9565b60405180910390fd5b60026000819055506001600081548092919061024f906110ab565b91905055508173ffffffffffffffffffffffffffffffffffffffff166323b872dd3330846040518463ffffffff1660e01b815260040161029193929190610d42565b600060405180830381600087803b1580156102ab57600080fd5b505af11580156102bf573d6000803e3d6000fd5b505050506040518060c0016040528060015481526020018373ffffffffffffffffffffffffffffffffffffffff168152602001828152602001600081526020013373ffffffffffffffffffffffffffffffffffffffff168152602001600015158152506002600060015481526020019081526020016000206000820151816000015560208201518160010160006101000a81548173ffffffffffffffffffffffffffffffffffffffff021916908373ffffffffffffffffffffffffffffffffffffffff160217905550604082015181600201556060820151816003015560808201518160040160006101000a81548173ffffffffffffffffffffffffffffffffffffffff021916908373ffffffffffffffffffffffffffffffffffffffff16021790555060a08201518160040160146101000a81548160ff0219169083151502179055509050503373ffffffffffffffffffffffffffffffffffffffff168273ffffffffffffffffffffffffffffffffffffffff167fdc4ff8fb799fb85686d69faeffeb3cb658a4f64349069703ddd4e8bf2ab5f43e60015484604051610467929190610e95565b60405180910390a360016000819055505050565b7f000000000000000000000000000000000000000000000000000000000000000081565b60015481565b7f000000000000000000000000000000000000000000000000000000000000000081565b6002600054141561050f576040517f08c379a000000000000000000000000000000000000000000000000000000000815260040161050690610df9565b60405180910390fd5b60026000819055506000811161055a576040517f08c379a000000000000000000000000000000000000000000000000000000000815260040161055190610d99565b60405180910390fd5b80600260008481526020019081526020016000206003018190555060016002600084815260200190815260200160002060040160146101000a81548160ff0219169083151502179055503373ffffffffffffffffffffffffffffffffffffffff167f1ab3864560512bcd762f59576711bc5e90d3ef93e9253b43cd6be191b4a5814e83836040516105ec929190610e95565b60405180910390a260016000819055505050565b60026020528060005260406000206000915090508060000154908060010160009054906101000a900473ffffffffffffffffffffffffffffffffffffffff16908060020154908060030154908060040160009054906101000a900473ffffffffffffffffffffffffffffffffffffffff16908060040160149054906101000a900460ff16905086565b600060647f000000000000000000000000000000000000000000000000000000000000000060646106ba9190610f06565b60026000858152602001908152602001600020600301546106db9190610f8d565b6106e59190610f5c565b9050919050565b60026000541415610732576040517f08c379a000000000000000000000000000000000000000000000000000000000815260040161072990610df9565b60405180910390fd5b6002600081905550600061074582610689565b9050600060026000848152602001908152602001600020905060008311801561077057506001548311155b6107af576040517f08c379a00000000000000000000000000000000000000000000000000000000081526004016107a690610db9565b60405180910390fd5b813410156107f2576040517f08c379a00000000000000000000000000000000000000000000000000000000081526004016107e990610d79565b60405180910390fd5b8060040160009054906101000a900473ffffffffffffffffffffffffffffffffffffffff1673ffffffffffffffffffffffffffffffffffffffff163373ffffffffffffffffffffffffffffffffffffffff161415610885576040517f08c379a000000000000000000000000000000000000000000000000000000000815260040161087c90610dd9565b60405180910390fd5b8060040160009054906101000a900473ffffffffffffffffffffffffffffffffffffffff1673ffffffffffffffffffffffffffffffffffffffff166108fc82600301549081150290604051600060405180830381858888f193505050501580156108f3573d6000803e3d6000fd5b507f000000000000000000000000000000000000000000000000000000000000000073ffffffffffffffffffffffffffffffffffffffff166108fc82600301548461093e9190610fe7565b9081150290604051600060405180830381858888f19350505050158015610969573d6000803e3d6000fd5b50336002600085815260200190815260200160002060040160006101000a81548173ffffffffffffffffffffffffffffffffffffffff021916908373ffffffffffffffffffffffffffffffffffffffff16021790555060006002600085815260200190815260200160002060040160146101000a81548160ff0219169083151502179055508060010160009054906101000a900473ffffffffffffffffffffffffffffffffffffffff1673ffffffffffffffffffffffffffffffffffffffff166323b872dd303384600201546040518463ffffffff1660e01b8152600401610a5393929190610d42565b600060405180830381600087803b158015610a6d57600080fd5b505af1158015610a81573d6000803e3d6000fd5b505050503373ffffffffffffffffffffffffffffffffffffffff168160040160009054906101000a900473ffffffffffffffffffffffffffffffffffffffff1673ffffffffffffffffffffffffffffffffffffffff168260010160009054906101000a900473ffffffffffffffffffffffffffffffffffffffff1673ffffffffffffffffffffffffffffffffffffffff167f8b4c9c8a607d67b321582dd8461041b1dc2ceeca70c8b7f37f8e02095cf2e76d8685600201548660030154604051610b4d93929190610ebe565b60405180910390a45050600160008190555050565b600081359050610b7181611245565b92915050565b600081359050610b868161125c565b92915050565b60008060408385031215610b9f57600080fd5b6000610bad85828601610b62565b9250506020610bbe85828601610b77565b9150509250929050565b600060208284031215610bda57600080fd5b6000610be884828501610b77565b91505092915050565b60008060408385031215610c0457600080fd5b6000610c1285828601610b77565b9250506020610c2385828601610b77565b9150509250929050565b610c368161102d565b82525050565b610c458161101b565b82525050565b610c548161103f565b82525050565b610c6381611087565b82525050565b6000610c76603383610ef5565b9150610c8182611152565b604082019050919050565b6000610c99601c83610ef5565b9150610ca4826111a1565b602082019050919050565b6000610cbc601283610ef5565b9150610cc7826111ca565b602082019050919050565b6000610cdf601883610ef5565b9150610cea826111f3565b602082019050919050565b6000610d02601f83610ef5565b9150610d0d8261121c565b602082019050919050565b610d218161107d565b82525050565b6000602082019050610d3c6000830184610c2d565b92915050565b6000606082019050610d576000830186610c3c565b610d646020830185610c3c565b610d716040830184610d18565b949350505050565b60006020820190508181036000830152610d9281610c69565b9050919050565b60006020820190508181036000830152610db281610c8c565b9050919050565b60006020820190508181036000830152610dd281610caf565b9050919050565b60006020820190508181036000830152610df281610cd2565b9050919050565b60006020820190508181036000830152610e1281610cf5565b9050919050565b6000602082019050610e2e6000830184610d18565b92915050565b600060c082019050610e496000830189610d18565b610e566020830188610c5a565b610e636040830187610d18565b610e706060830186610d18565b610e7d6080830185610c2d565b610e8a60a0830184610c4b565b979650505050505050565b6000604082019050610eaa6000830185610d18565b610eb76020830184610d18565b9392505050565b6000606082019050610ed36000830186610d18565b610ee06020830185610d18565b610eed6040830184610d18565b949350505050565b600082825260208201905092915050565b6000610f118261107d565b9150610f1c8361107d565b9250827fffffffffffffffffffffffffffffffffffffffffffffffffffffffffffffffff03821115610f5157610f506110f4565b5b828201905092915050565b6000610f678261107d565b9150610f728361107d565b925082610f8257610f81611123565b5b828204905092915050565b6000610f988261107d565b9150610fa38361107d565b9250817fffffffffffffffffffffffffffffffffffffffffffffffffffffffffffffffff0483118215151615610fdc57610fdb6110f4565b5b828202905092915050565b6000610ff28261107d565b9150610ffd8361107d565b9250828210156110105761100f6110f4565b5b828203905092915050565b60006110268261105d565b9050919050565b60006110388261105d565b9050919050565b60008115159050919050565b60006110568261101b565b9050919050565b600073ffffffffffffffffffffffffffffffffffffffff82169050919050565b6000819050919050565b600061109282611099565b9050919050565b60006110a48261105d565b9050919050565b60006110b68261107d565b91507fffffffffffffffffffffffffffffffffffffffffffffffffffffffffffffffff8214156110e9576110e86110f4565b5b600182019050919050565b7f4e487b7100000000000000000000000000000000000000000000000000000000600052601160045260246000fd5b7f4e487b7100000000000000000000000000000000000000000000000000000000600052601260045260246000fd5b7f6e6f7420656e6f75676820657468657220746f20636f766572206974656d207060008201527f7269636520616e64206d61726b65742066656500000000000000000000000000602082015250565b7f5072696365206d7573742062652067726561746572203e207a65726f00000000600082015250565b7f6974656d20646f65736e27742065786973740000000000000000000000000000600082015250565b7f596f7520616c7265616479206f776e20746865206e6674210000000000000000600082015250565b7f5265656e7472616e637947756172643a207265656e7472616e742063616c6c00600082015250565b61124e8161104b565b811461125957600080fd5b50565b6112658161107d565b811461127057600080fd5b5056fea26469706673582212200753e66ea89577e1cc69df8944546bf370a2a8dfd389880a165b6019ce26735564736f6c63430008040033",
  "linkReferences": {},
  "deployedLinkReferences": {}
}