{
  "_format": "hh-sol-artifact-1",
  "contractName": "Marketplace",
  "sourceName": "src/backend/contracts/Marketplace.sol",
  "abi": [
    {
      "inputs": [
        {
          "internalType": "uint256",
          "name": "_feePercent",
          "type": "uint256"
        }
      ],
      "stateMutability": "nonpayable",
      "type": "constructor"
    },
    {
      "anonymous": false,
      "inputs": [
        {
          "indexed": false,
          "internalType": "uint256",
          "name": "itemId",
          "type": "uint256"
        },
        {
          "indexed": true,
          "internalType": "address",
          "name": "nft",
          "type": "address"
        },
        {
          "indexed": false,
          "internalType": "uint256",
          "name": "tokenId",
          "type": "uint256"
        },
        {
          "indexed": false,
          "internalType": "uint256",
          "name": "price",
          "type": "uint256"
        },
        {
          "indexed": true,
          "internalType": "address",
          "name": "seller",
          "type": "address"
        },
        {
          "indexed": true,
          "internalType": "address",
          "name": "buyer",
          "type": "address"
        }
      ],
      "name": "Bought",
      "type": "event"
    },
    {
      "anonymous": false,
      "inputs": [
        {
          "indexed": false,
          "internalType": "uint256",
          "name": "itemId",
          "type": "uint256"
        },
        {
          "indexed": true,
          "internalType": "address",
          "name": "nft",
          "type": "address"
        },
        {
          "indexed": false,
          "internalType": "uint256",
          "name": "tokenId",
          "type": "uint256"
        },
        {
          "indexed": true,
          "internalType": "address",
          "name": "seller",
          "type": "address"
        }
      ],
      "name": "Minted",
      "type": "event"
    },
    {
      "anonymous": false,
      "inputs": [
        {
          "indexed": false,
          "internalType": "uint256",
          "name": "itemId",
          "type": "uint256"
        },
        {
          "indexed": false,
          "internalType": "uint256",
          "name": "price",
          "type": "uint256"
        },
        {
          "indexed": true,
          "internalType": "address",
          "name": "seller",
          "type": "address"
        }
      ],
      "name": "Offered",
      "type": "event"
    },
    {
      "anonymous": false,
      "inputs": [
        {
          "indexed": false,
          "internalType": "uint256",
          "name": "itemId",
          "type": "uint256"
        },
        {
          "indexed": true,
          "internalType": "address",
          "name": "seller",
          "type": "address"
        }
      ],
      "name": "Unlisted",
      "type": "event"
    },
    {
      "inputs": [],
      "name": "getAllNFTs",
      "outputs": [
        {
          "components": [
            {
              "internalType": "uint256",
              "name": "itemId",
              "type": "uint256"
            },
            {
              "internalType": "contract IERC721",
              "name": "nft",
              "type": "address"
            },
            {
              "internalType": "uint256",
              "name": "tokenId",
              "type": "uint256"
            },
            {
              "internalType": "uint256",
              "name": "price",
              "type": "uint256"
            },
            {
              "internalType": "address payable",
              "name": "seller",
              "type": "address"
            },
            {
              "internalType": "bool",
              "name": "onSale",
              "type": "bool"
            }
          ],
          "internalType": "struct Marketplace.Item[]",
          "name": "",
          "type": "tuple[]"
        }
      ],
      "stateMutability": "view",
      "type": "function"
    },
    {
      "inputs": [],
      "name": "getAllTransactions",
      "outputs": [
        {
          "components": [
            {
              "internalType": "uint256",
              "name": "transactionCount",
              "type": "uint256"
            },
            {
              "internalType": "address",
              "name": "from",
              "type": "address"
            },
            {
              "internalType": "address",
              "name": "to",
              "type": "address"
            },
            {
              "internalType": "uint256",
              "name": "amount",
              "type": "uint256"
            },
            {
              "internalType": "uint256",
              "name": "tokenId",
              "type": "uint256"
            },
            {
              "internalType": "uint256",
              "name": "timestamp",
              "type": "uint256"
            }
          ],
          "internalType": "struct Marketplace.Transaction[]",
          "name": "",
          "type": "tuple[]"
        }
      ],
      "stateMutability": "view",
      "type": "function"
    },
    {
      "inputs": [],
      "name": "getItemCount",
      "outputs": [
        {
          "internalType": "uint256",
          "name": "",
          "type": "uint256"
        }
      ],
      "stateMutability": "view",
      "type": "function"
    },
    {
      "inputs": [
        {
          "internalType": "uint256",
          "name": "_itemId",
          "type": "uint256"
        }
      ],
      "name": "getTotalPrice",
      "outputs": [
        {
          "internalType": "uint256",
          "name": "",
          "type": "uint256"
        }
      ],
      "stateMutability": "view",
      "type": "function"
    },
    {
      "inputs": [],
      "name": "getTransactionCount",
      "outputs": [
        {
          "internalType": "uint256",
          "name": "",
          "type": "uint256"
        }
      ],
      "stateMutability": "view",
      "type": "function"
    },
    {
      "inputs": [
        {
          "internalType": "uint256",
          "name": "id",
          "type": "uint256"
        },
        {
          "internalType": "uint256",
          "name": "_price",
          "type": "uint256"
        }
      ],
      "name": "listItem",
      "outputs": [],
      "stateMutability": "nonpayable",
      "type": "function"
    },
    {
      "inputs": [
        {
          "internalType": "contract IERC721",
          "name": "_nft",
          "type": "address"
        },
        {
          "internalType": "uint256",
          "name": "_tokenId",
          "type": "uint256"
        }
      ],
      "name": "makeItem",
      "outputs": [],
      "stateMutability": "nonpayable",
      "type": "function"
    },
    {
      "inputs": [
        {
          "internalType": "uint256",
          "name": "_itemId",
          "type": "uint256"
        }
      ],
      "name": "purchaseItem",
      "outputs": [],
      "stateMutability": "payable",
      "type": "function"
    },
    {
      "inputs": [
        {
          "internalType": "uint256",
          "name": "_tokenId",
          "type": "uint256"
        }
      ],
      "name": "unlistItem",
      "outputs": [],
      "stateMutability": "nonpayable",
      "type": "function"
    }
  ],
  "bytecode": "0x60c06040523480156200001157600080fd5b5060405162001e8038038062001e8083398181016040528101906200003791906200009c565b60016000819055503373ffffffffffffffffffffffffffffffffffffffff1660808173ffffffffffffffffffffffffffffffffffffffff1660601b815250508060a0818152505050620000ec565b6000815190506200009681620000d2565b92915050565b600060208284031215620000af57600080fd5b6000620000bf8482850162000085565b91505092915050565b6000819050919050565b620000dd81620000c8565b8114620000e957600080fd5b50565b60805160601c60a051611d6b620001156000396000610a1301526000610ddf0152611d6b6000f3fe6080604052600436106100865760003560e01c80637749cf23116100595780637749cf2314610133578063883efa671461015e578063ca7dd37514610187578063d38ea5bf146101c4578063e0391b09146101e057610086565b80631a1beae21461008b57806327506f53146100b45780632e7700f0146100df5780635a599da81461010a575b600080fd5b34801561009757600080fd5b506100b260048036038101906100ad919061133c565b61020b565b005b3480156100c057600080fd5b506100c9610498565b6040516100d69190611776565b60405180910390f35b3480156100eb57600080fd5b506100f4610688565b6040516101019190611878565b60405180910390f35b34801561011657600080fd5b50610131600480360381019061012c9190611378565b610692565b005b34801561013f57600080fd5b50610148610828565b6040516101559190611878565b60405180910390f35b34801561016a57600080fd5b50610185600480360381019061018091906113a1565b610832565b005b34801561019357600080fd5b506101ae60048036038101906101a99190611378565b610a0d565b6040516101bb9190611878565b60405180910390f35b6101de60048036038101906101d99190611378565b610a70565b005b3480156101ec57600080fd5b506101f561104b565b6040516102029190611754565b60405180910390f35b60026000541415610251576040517f08c379a000000000000000000000000000000000000000000000000000000000815260040161024890611858565b60405180910390fd5b60026000819055506001600081548092919061026c90611b1b565b91905055508173ffffffffffffffffffffffffffffffffffffffff166323b872dd3330846040518463ffffffff1660e01b81526004016102ae9392919061171d565b600060405180830381600087803b1580156102c857600080fd5b505af11580156102dc573d6000803e3d6000fd5b505050506040518060c0016040528060015481526020018373ffffffffffffffffffffffffffffffffffffffff168152602001828152602001600081526020013373ffffffffffffffffffffffffffffffffffffffff168152602001600015158152506003600060015481526020019081526020016000206000820151816000015560208201518160010160006101000a81548173ffffffffffffffffffffffffffffffffffffffff021916908373ffffffffffffffffffffffffffffffffffffffff160217905550604082015181600201556060820151816003015560808201518160040160006101000a81548173ffffffffffffffffffffffffffffffffffffffff021916908373ffffffffffffffffffffffffffffffffffffffff16021790555060a08201518160040160146101000a81548160ff0219169083151502179055509050503373ffffffffffffffffffffffffffffffffffffffff168273ffffffffffffffffffffffffffffffffffffffff167fdc4ff8fb799fb85686d69faeffeb3cb658a4f64349069703ddd4e8bf2ab5f43e60015484604051610484929190611893565b60405180910390a360016000819055505050565b60606000600254905060008167ffffffffffffffff8111156104e3577f4e487b7100000000000000000000000000000000000000000000000000000000600052604160045260246000fd5b60405190808252806020026020018201604052801561051c57816020015b61050961124c565b8152602001906001900390816105015790505b50905060005b8281101561067f576004600060018361053b9190611976565b81526020019081526020016000206040518060c0016040529081600082015481526020016001820160009054906101000a900473ffffffffffffffffffffffffffffffffffffffff1673ffffffffffffffffffffffffffffffffffffffff1673ffffffffffffffffffffffffffffffffffffffff1681526020016002820160009054906101000a900473ffffffffffffffffffffffffffffffffffffffff1673ffffffffffffffffffffffffffffffffffffffff1673ffffffffffffffffffffffffffffffffffffffff1681526020016003820154815260200160048201548152602001600582015481525050828281518110610661577f4e487b7100000000000000000000000000000000000000000000000000000000600052603260045260246000fd5b6020026020010181905250808061067790611b1b565b915050610522565b50809250505090565b6000600254905090565b600260005414156106d8576040517f08c379a00000000000000000000000000000000000000000000000000000000081526004016106cf90611858565b60405180910390fd5b60026000819055506003600082815260200190815260200160002060040160009054906101000a900473ffffffffffffffffffffffffffffffffffffffff1673ffffffffffffffffffffffffffffffffffffffff163373ffffffffffffffffffffffffffffffffffffffff1614610784576040517f08c379a000000000000000000000000000000000000000000000000000000000815260040161077b90611798565b60405180910390fd5b6000600360008381526020019081526020016000206003018190555060006003600083815260200190815260200160002060040160146101000a81548160ff0219169083151502179055503373ffffffffffffffffffffffffffffffffffffffff167f398bd90ce129393b9155d48dccffb325e671f45c4250de457462a019268ff1f0826040516108159190611878565b60405180910390a2600160008190555050565b6000600154905090565b60026000541415610878576040517f08c379a000000000000000000000000000000000000000000000000000000000815260040161086f90611858565b60405180910390fd5b6002600081905550600081116108c3576040517f08c379a00000000000000000000000000000000000000000000000000000000081526004016108ba906117d8565b60405180910390fd5b6003600083815260200190815260200160002060040160009054906101000a900473ffffffffffffffffffffffffffffffffffffffff1673ffffffffffffffffffffffffffffffffffffffff163373ffffffffffffffffffffffffffffffffffffffff1614610967576040517f08c379a000000000000000000000000000000000000000000000000000000000815260040161095e90611838565b60405180910390fd5b80600360008481526020019081526020016000206003018190555060016003600084815260200190815260200160002060040160146101000a81548160ff0219169083151502179055503373ffffffffffffffffffffffffffffffffffffffff167f1ab3864560512bcd762f59576711bc5e90d3ef93e9253b43cd6be191b4a5814e83836040516109f9929190611893565b60405180910390a260016000819055505050565b600060647f00000000000000000000000000000000000000000000000000000000000000006064610a3e9190611976565b6003600085815260200190815260200160002060030154610a5f91906119fd565b610a6991906119cc565b9050919050565b60026000541415610ab6576040517f08c379a0000000000000000000000000000000000000000000000000000000008152600401610aad90611858565b60405180910390fd5b60026000819055506000610ac982610a0d565b90506000600360008481526020019081526020016000209050600083118015610af457506001548311155b610b33576040517f08c379a0000000000000000000000000000000000000000000000000000000008152600401610b2a906117f8565b60405180910390fd5b81341015610b76576040517f08c379a0000000000000000000000000000000000000000000000000000000008152600401610b6d906117b8565b60405180910390fd5b8060040160009054906101000a900473ffffffffffffffffffffffffffffffffffffffff1673ffffffffffffffffffffffffffffffffffffffff163373ffffffffffffffffffffffffffffffffffffffff161415610c09576040517f08c379a0000000000000000000000000000000000000000000000000000000008152600401610c0090611818565b60405180910390fd5b60026000815480929190610c1c90611b1b565b91905055506040518060c0016040528060025481526020018260040160009054906101000a900473ffffffffffffffffffffffffffffffffffffffff1673ffffffffffffffffffffffffffffffffffffffff1681526020013373ffffffffffffffffffffffffffffffffffffffff168152602001838152602001848152602001428152506004600060025481526020019081526020016000206000820151816000015560208201518160010160006101000a81548173ffffffffffffffffffffffffffffffffffffffff021916908373ffffffffffffffffffffffffffffffffffffffff16021790555060408201518160020160006101000a81548173ffffffffffffffffffffffffffffffffffffffff021916908373ffffffffffffffffffffffffffffffffffffffff160217905550606082015181600301556080820151816004015560a082015181600501559050508060040160009054906101000a900473ffffffffffffffffffffffffffffffffffffffff1673ffffffffffffffffffffffffffffffffffffffff166108fc82600301549081150290604051600060405180830381858888f19350505050158015610ddc573d6000803e3d6000fd5b507f000000000000000000000000000000000000000000000000000000000000000073ffffffffffffffffffffffffffffffffffffffff166108fc826003015484610e279190611a57565b9081150290604051600060405180830381858888f19350505050158015610e52573d6000803e3d6000fd5b50336003600085815260200190815260200160002060040160006101000a81548173ffffffffffffffffffffffffffffffffffffffff021916908373ffffffffffffffffffffffffffffffffffffffff16021790555060006003600085815260200190815260200160002060040160146101000a81548160ff0219169083151502179055508060010160009054906101000a900473ffffffffffffffffffffffffffffffffffffffff1673ffffffffffffffffffffffffffffffffffffffff166323b872dd303384600201546040518463ffffffff1660e01b8152600401610f3c9392919061171d565b600060405180830381600087803b158015610f5657600080fd5b505af1158015610f6a573d6000803e3d6000fd5b505050503373ffffffffffffffffffffffffffffffffffffffff168160040160009054906101000a900473ffffffffffffffffffffffffffffffffffffffff1673ffffffffffffffffffffffffffffffffffffffff168260010160009054906101000a900473ffffffffffffffffffffffffffffffffffffffff1673ffffffffffffffffffffffffffffffffffffffff167f8b4c9c8a607d67b321582dd8461041b1dc2ceeca70c8b7f37f8e02095cf2e76d8685600201548660030154604051611036939291906118bc565b60405180910390a45050600160008190555050565b60606000600154905060008167ffffffffffffffff811115611096577f4e487b7100000000000000000000000000000000000000000000000000000000600052604160045260246000fd5b6040519080825280602002602001820160405280156110cf57816020015b6110bc6112ae565b8152602001906001900390816110b45790505b50905060005b8281101561124357600360006001836110ee9190611976565b81526020019081526020016000206040518060c0016040529081600082015481526020016001820160009054906101000a900473ffffffffffffffffffffffffffffffffffffffff1673ffffffffffffffffffffffffffffffffffffffff1673ffffffffffffffffffffffffffffffffffffffff16815260200160028201548152602001600382015481526020016004820160009054906101000a900473ffffffffffffffffffffffffffffffffffffffff1673ffffffffffffffffffffffffffffffffffffffff1673ffffffffffffffffffffffffffffffffffffffff1681526020016004820160149054906101000a900460ff161515151581525050828281518110611225577f4e487b7100000000000000000000000000000000000000000000000000000000600052603260045260246000fd5b6020026020010181905250808061123b90611b1b565b9150506110d5565b50809250505090565b6040518060c0016040528060008152602001600073ffffffffffffffffffffffffffffffffffffffff168152602001600073ffffffffffffffffffffffffffffffffffffffff1681526020016000815260200160008152602001600081525090565b6040518060c0016040528060008152602001600073ffffffffffffffffffffffffffffffffffffffff1681526020016000815260200160008152602001600073ffffffffffffffffffffffffffffffffffffffff1681526020016000151581525090565b60008135905061132181611d07565b92915050565b60008135905061133681611d1e565b92915050565b6000806040838503121561134f57600080fd5b600061135d85828601611312565b925050602061136e85828601611327565b9150509250929050565b60006020828403121561138a57600080fd5b600061139884828501611327565b91505092915050565b600080604083850312156113b457600080fd5b60006113c285828601611327565b92505060206113d385828601611327565b9150509250929050565b60006113e98383611609565b60c08301905092915050565b60006114018383611684565b60c08301905092915050565b61141681611a9d565b82525050565b61142581611a8b565b82525050565b61143481611a8b565b82525050565b600061144582611913565b61144f8185611943565b935061145a836118f3565b8060005b8381101561148b57815161147288826113dd565b975061147d83611929565b92505060018101905061145e565b5085935050505092915050565b60006114a38261191e565b6114ad8185611954565b93506114b883611903565b8060005b838110156114e95781516114d088826113f5565b97506114db83611936565b9250506001810190506114bc565b5085935050505092915050565b6114ff81611aaf565b82525050565b61150e81611af7565b82525050565b6000611521601683611965565b915061152c82611bc2565b602082019050919050565b6000611544603383611965565b915061154f82611beb565b604082019050919050565b6000611567601c83611965565b915061157282611c3a565b602082019050919050565b600061158a601283611965565b915061159582611c63565b602082019050919050565b60006115ad601883611965565b91506115b882611c8c565b602082019050919050565b60006115d0601583611965565b91506115db82611cb5565b602082019050919050565b60006115f3601f83611965565b91506115fe82611cde565b602082019050919050565b60c08201600082015161161f60008501826116ff565b5060208201516116326020850182611505565b50604082015161164560408501826116ff565b50606082015161165860608501826116ff565b50608082015161166b608085018261140d565b5060a082015161167e60a08501826114f6565b50505050565b60c08201600082015161169a60008501826116ff565b5060208201516116ad602085018261141c565b5060408201516116c0604085018261141c565b5060608201516116d360608501826116ff565b5060808201516116e660808501826116ff565b5060a08201516116f960a08501826116ff565b50505050565b61170881611aed565b82525050565b61171781611aed565b82525050565b6000606082019050611732600083018661142b565b61173f602083018561142b565b61174c604083018461170e565b949350505050565b6000602082019050818103600083015261176e818461143a565b905092915050565b600060208201905081810360008301526117908184611498565b905092915050565b600060208201905081810360008301526117b181611514565b9050919050565b600060208201905081810360008301526117d181611537565b9050919050565b600060208201905081810360008301526117f18161155a565b9050919050565b600060208201905081810360008301526118118161157d565b9050919050565b60006020820190508181036000830152611831816115a0565b9050919050565b60006020820190508181036000830152611851816115c3565b9050919050565b60006020820190508181036000830152611871816115e6565b9050919050565b600060208201905061188d600083018461170e565b92915050565b60006040820190506118a8600083018561170e565b6118b5602083018461170e565b9392505050565b60006060820190506118d1600083018661170e565b6118de602083018561170e565b6118eb604083018461170e565b949350505050565b6000819050602082019050919050565b6000819050602082019050919050565b600081519050919050565b600081519050919050565b6000602082019050919050565b6000602082019050919050565b600082825260208201905092915050565b600082825260208201905092915050565b600082825260208201905092915050565b600061198182611aed565b915061198c83611aed565b9250827fffffffffffffffffffffffffffffffffffffffffffffffffffffffffffffffff038211156119c1576119c0611b64565b5b828201905092915050565b60006119d782611aed565b91506119e283611aed565b9250826119f2576119f1611b93565b5b828204905092915050565b6000611a0882611aed565b9150611a1383611aed565b9250817fffffffffffffffffffffffffffffffffffffffffffffffffffffffffffffffff0483118215151615611a4c57611a4b611b64565b5b828202905092915050565b6000611a6282611aed565b9150611a6d83611aed565b925082821015611a8057611a7f611b64565b5b828203905092915050565b6000611a9682611acd565b9050919050565b6000611aa882611acd565b9050919050565b60008115159050919050565b6000611ac682611a8b565b9050919050565b600073ffffffffffffffffffffffffffffffffffffffff82169050919050565b6000819050919050565b6000611b0282611b09565b9050919050565b6000611b1482611acd565b9050919050565b6000611b2682611aed565b91507fffffffffffffffffffffffffffffffffffffffffffffffffffffffffffffffff821415611b5957611b58611b64565b5b600182019050919050565b7f4e487b7100000000000000000000000000000000000000000000000000000000600052601160045260246000fd5b7f4e487b7100000000000000000000000000000000000000000000000000000000600052601260045260246000fd5b7f596f7520646f6e2774206f776e2074686973206e667400000000000000000000600082015250565b7f6e6f7420656e6f75676820657468657220746f20636f766572206974656d207060008201527f7269636520616e64206d61726b65742066656500000000000000000000000000602082015250565b7f5072696365206d7573742062652067726561746572203e207a65726f00000000600082015250565b7f6974656d20646f65736e27742065786973740000000000000000000000000000600082015250565b7f596f7520616c7265616479206f776e20746865206e6674210000000000000000600082015250565b7f596f7520646f6e2774206f776e20746865206e66740000000000000000000000600082015250565b7f5265656e7472616e637947756172643a207265656e7472616e742063616c6c00600082015250565b611d1081611abb565b8114611d1b57600080fd5b50565b611d2781611aed565b8114611d3257600080fd5b5056fea26469706673582212208c7828becb3eb78a649a0cf9f383545c4874926407c21df9866459248c651cff64736f6c63430008040033",
  "linkReferences": {},
  "deployedLinkReferences": {}
}