{
  "_format": "hh-sol-artifact-1",
  "contractName": "Marketplace",
  "sourceName": "src/backend/contracts/Marketplace.sol",
  "abi": [
    {
      "inputs": [
        {
          "internalType": "uint256",
          "name": "_feePercent",
          "type": "uint256"
        }
      ],
      "stateMutability": "nonpayable",
      "type": "constructor"
    },
    {
      "anonymous": false,
      "inputs": [
        {
          "indexed": false,
          "internalType": "uint256",
          "name": "itemId",
          "type": "uint256"
        },
        {
          "indexed": true,
          "internalType": "address",
          "name": "nft",
          "type": "address"
        },
        {
          "indexed": false,
          "internalType": "uint256",
          "name": "tokenId",
          "type": "uint256"
        },
        {
          "indexed": false,
          "internalType": "uint256",
          "name": "price",
          "type": "uint256"
        },
        {
          "indexed": true,
          "internalType": "address",
          "name": "seller",
          "type": "address"
        },
        {
          "indexed": true,
          "internalType": "address",
          "name": "buyer",
          "type": "address"
        }
      ],
      "name": "Bought",
      "type": "event"
    },
    {
      "anonymous": false,
      "inputs": [
        {
          "indexed": false,
          "internalType": "uint256",
          "name": "itemId",
          "type": "uint256"
        },
        {
          "indexed": true,
          "internalType": "address",
          "name": "nft",
          "type": "address"
        },
        {
          "indexed": false,
          "internalType": "uint256",
          "name": "tokenId",
          "type": "uint256"
        },
        {
          "indexed": true,
          "internalType": "address",
          "name": "seller",
          "type": "address"
        }
      ],
      "name": "Minted",
      "type": "event"
    },
    {
      "anonymous": false,
      "inputs": [
        {
          "indexed": false,
          "internalType": "uint256",
          "name": "itemId",
          "type": "uint256"
        },
        {
          "indexed": false,
          "internalType": "uint256",
          "name": "price",
          "type": "uint256"
        },
        {
          "indexed": true,
          "internalType": "address",
          "name": "seller",
          "type": "address"
        }
      ],
      "name": "Offered",
      "type": "event"
    },
    {
      "anonymous": false,
      "inputs": [
        {
          "indexed": false,
          "internalType": "uint256",
          "name": "itemId",
          "type": "uint256"
        },
        {
          "indexed": true,
          "internalType": "address",
          "name": "seller",
          "type": "address"
        }
      ],
      "name": "Unlisted",
      "type": "event"
    },
    {
      "inputs": [],
      "name": "feeAccount",
      "outputs": [
        {
          "internalType": "address payable",
          "name": "",
          "type": "address"
        }
      ],
      "stateMutability": "view",
      "type": "function"
    },
    {
      "inputs": [],
      "name": "feePercent",
      "outputs": [
        {
          "internalType": "uint256",
          "name": "",
          "type": "uint256"
        }
      ],
      "stateMutability": "view",
      "type": "function"
    },
    {
      "inputs": [
        {
          "internalType": "uint256",
          "name": "_itemId",
          "type": "uint256"
        }
      ],
      "name": "getTotalPrice",
      "outputs": [
        {
          "internalType": "uint256",
          "name": "",
          "type": "uint256"
        }
      ],
      "stateMutability": "view",
      "type": "function"
    },
    {
      "inputs": [],
      "name": "itemCount",
      "outputs": [
        {
          "internalType": "uint256",
          "name": "",
          "type": "uint256"
        }
      ],
      "stateMutability": "view",
      "type": "function"
    },
    {
      "inputs": [
        {
          "internalType": "uint256",
          "name": "",
          "type": "uint256"
        }
      ],
      "name": "items",
      "outputs": [
        {
          "internalType": "uint256",
          "name": "itemId",
          "type": "uint256"
        },
        {
          "internalType": "contract IERC721",
          "name": "nft",
          "type": "address"
        },
        {
          "internalType": "uint256",
          "name": "tokenId",
          "type": "uint256"
        },
        {
          "internalType": "uint256",
          "name": "price",
          "type": "uint256"
        },
        {
          "internalType": "address payable",
          "name": "seller",
          "type": "address"
        },
        {
          "internalType": "bool",
          "name": "onSale",
          "type": "bool"
        }
      ],
      "stateMutability": "view",
      "type": "function"
    },
    {
      "inputs": [
        {
          "internalType": "uint256",
          "name": "id",
          "type": "uint256"
        },
        {
          "internalType": "uint256",
          "name": "_price",
          "type": "uint256"
        }
      ],
      "name": "listItem",
      "outputs": [],
      "stateMutability": "nonpayable",
      "type": "function"
    },
    {
      "inputs": [
        {
          "internalType": "contract IERC721",
          "name": "_nft",
          "type": "address"
        },
        {
          "internalType": "uint256",
          "name": "_tokenId",
          "type": "uint256"
        }
      ],
      "name": "makeItem",
      "outputs": [],
      "stateMutability": "nonpayable",
      "type": "function"
    },
    {
      "inputs": [
        {
          "internalType": "uint256",
          "name": "_itemId",
          "type": "uint256"
        }
      ],
      "name": "purchaseItem",
      "outputs": [],
      "stateMutability": "payable",
      "type": "function"
    },
    {
      "inputs": [],
      "name": "transactionCount",
      "outputs": [
        {
          "internalType": "uint256",
          "name": "",
          "type": "uint256"
        }
      ],
      "stateMutability": "view",
      "type": "function"
    },
    {
      "inputs": [
        {
          "internalType": "uint256",
          "name": "",
          "type": "uint256"
        }
      ],
      "name": "transactions",
      "outputs": [
        {
          "internalType": "uint256",
          "name": "transactionCount",
          "type": "uint256"
        },
        {
          "internalType": "address",
          "name": "from",
          "type": "address"
        },
        {
          "internalType": "address",
          "name": "to",
          "type": "address"
        },
        {
          "internalType": "uint256",
          "name": "amount",
          "type": "uint256"
        },
        {
          "internalType": "uint256",
          "name": "tokenId",
          "type": "uint256"
        },
        {
          "internalType": "uint256",
          "name": "timestamp",
          "type": "uint256"
        }
      ],
      "stateMutability": "view",
      "type": "function"
    },
    {
      "inputs": [
        {
          "internalType": "uint256",
          "name": "_tokenId",
          "type": "uint256"
        }
      ],
      "name": "unlistItem",
      "outputs": [],
      "stateMutability": "nonpayable",
      "type": "function"
    }
  ],
  "bytecode": "0x60c06040523480156200001157600080fd5b506040516200191f3803806200191f83398181016040528101906200003791906200009c565b60016000819055503373ffffffffffffffffffffffffffffffffffffffff1660808173ffffffffffffffffffffffffffffffffffffffff1660601b815250508060a0818152505050620000ec565b6000815190506200009681620000d2565b92915050565b600060208284031215620000af57600080fd5b6000620000bf8482850162000085565b91505092915050565b6000819050919050565b620000dd81620000c8565b8114620000e957600080fd5b50565b60805160601c60a0516117fc6200012360003960008181610668015261093001526000818161063e0152610cb601526117fc6000f3fe60806040526004361061009c5760003560e01c8063883efa6711610064578063883efa67146101745780639ace38c21461019d578063b77bf600146101df578063bfb231d21461020a578063ca7dd3751461024c578063d38ea5bf146102895761009c565b80631a1beae2146100a15780635a599da8146100ca57806365e17c9d146100f35780636bfb0d011461011e5780637fd6f15c14610149575b600080fd5b3480156100ad57600080fd5b506100c860048036038101906100c39190610fa6565b6102a5565b005b3480156100d657600080fd5b506100f160048036038101906100ec9190610fe2565b6104ec565b005b3480156100ff57600080fd5b5061010861063c565b6040516101159190611187565b60405180910390f35b34801561012a57600080fd5b50610133610660565b60405161014091906112b9565b60405180910390f35b34801561015557600080fd5b5061015e610666565b60405161016b91906112b9565b60405180910390f35b34801561018057600080fd5b5061019b6004803603810190610196919061100b565b61068a565b005b3480156101a957600080fd5b506101c460048036038101906101bf9190610fe2565b61081f565b6040516101d6969594939291906112d4565b60405180910390f35b3480156101eb57600080fd5b506101f461089b565b60405161020191906112b9565b60405180910390f35b34801561021657600080fd5b50610231600480360381019061022c9190610fe2565b6108a1565b60405161024396959493929190611335565b60405180910390f35b34801561025857600080fd5b50610273600480360381019061026e9190610fe2565b61092a565b60405161028091906112b9565b60405180910390f35b6102a3600480360381019061029e9190610fe2565b61098d565b005b6102ad610f22565b600160008154809291906102c0906115ac565b91905055508173ffffffffffffffffffffffffffffffffffffffff166323b872dd3330846040518463ffffffff1660e01b8152600401610302939291906111a2565b600060405180830381600087803b15801561031c57600080fd5b505af1158015610330573d6000803e3d6000fd5b505050506040518060c0016040528060015481526020018373ffffffffffffffffffffffffffffffffffffffff168152602001828152602001600081526020013373ffffffffffffffffffffffffffffffffffffffff168152602001600015158152506003600060015481526020019081526020016000206000820151816000015560208201518160010160006101000a81548173ffffffffffffffffffffffffffffffffffffffff021916908373ffffffffffffffffffffffffffffffffffffffff160217905550604082015181600201556060820151816003015560808201518160040160006101000a81548173ffffffffffffffffffffffffffffffffffffffff021916908373ffffffffffffffffffffffffffffffffffffffff16021790555060a08201518160040160146101000a81548160ff0219169083151502179055509050503373ffffffffffffffffffffffffffffffffffffffff168273ffffffffffffffffffffffffffffffffffffffff167fdc4ff8fb799fb85686d69faeffeb3cb658a4f64349069703ddd4e8bf2ab5f43e600154846040516104d8929190611396565b60405180910390a36104e8610f72565b5050565b6104f4610f22565b6003600082815260200190815260200160002060040160009054906101000a900473ffffffffffffffffffffffffffffffffffffffff1673ffffffffffffffffffffffffffffffffffffffff163373ffffffffffffffffffffffffffffffffffffffff1614610598576040517f08c379a000000000000000000000000000000000000000000000000000000000815260040161058f906111d9565b60405180910390fd5b6000600360008381526020019081526020016000206003018190555060006003600083815260200190815260200160002060040160146101000a81548160ff0219169083151502179055503373ffffffffffffffffffffffffffffffffffffffff167f398bd90ce129393b9155d48dccffb325e671f45c4250de457462a019268ff1f08260405161062991906112b9565b60405180910390a2610639610f72565b50565b7f000000000000000000000000000000000000000000000000000000000000000081565b60015481565b7f000000000000000000000000000000000000000000000000000000000000000081565b610692610f22565b600081116106d5576040517f08c379a00000000000000000000000000000000000000000000000000000000081526004016106cc90611219565b60405180910390fd5b6003600083815260200190815260200160002060040160009054906101000a900473ffffffffffffffffffffffffffffffffffffffff1673ffffffffffffffffffffffffffffffffffffffff163373ffffffffffffffffffffffffffffffffffffffff1614610779576040517f08c379a000000000000000000000000000000000000000000000000000000000815260040161077090611279565b60405180910390fd5b80600360008481526020019081526020016000206003018190555060016003600084815260200190815260200160002060040160146101000a81548160ff0219169083151502179055503373ffffffffffffffffffffffffffffffffffffffff167f1ab3864560512bcd762f59576711bc5e90d3ef93e9253b43cd6be191b4a5814e838360405161080b929190611396565b60405180910390a261081b610f72565b5050565b60046020528060005260406000206000915090508060000154908060010160009054906101000a900473ffffffffffffffffffffffffffffffffffffffff16908060020160009054906101000a900473ffffffffffffffffffffffffffffffffffffffff16908060030154908060040154908060050154905086565b60025481565b60036020528060005260406000206000915090508060000154908060010160009054906101000a900473ffffffffffffffffffffffffffffffffffffffff16908060020154908060030154908060040160009054906101000a900473ffffffffffffffffffffffffffffffffffffffff16908060040160149054906101000a900460ff16905086565b600060647f0000000000000000000000000000000000000000000000000000000000000000606461095b9190611407565b600360008581526020019081526020016000206003015461097c919061148e565b610986919061145d565b9050919050565b610995610f22565b60006109a08261092a565b905060006003600084815260200190815260200160002090506000831180156109cb57506001548311155b610a0a576040517f08c379a0000000000000000000000000000000000000000000000000000000008152600401610a0190611239565b60405180910390fd5b81341015610a4d576040517f08c379a0000000000000000000000000000000000000000000000000000000008152600401610a44906111f9565b60405180910390fd5b8060040160009054906101000a900473ffffffffffffffffffffffffffffffffffffffff1673ffffffffffffffffffffffffffffffffffffffff163373ffffffffffffffffffffffffffffffffffffffff161415610ae0576040517f08c379a0000000000000000000000000000000000000000000000000000000008152600401610ad790611259565b60405180910390fd5b60026000815480929190610af3906115ac565b91905055506040518060c0016040528060025481526020018260040160009054906101000a900473ffffffffffffffffffffffffffffffffffffffff1673ffffffffffffffffffffffffffffffffffffffff1681526020013373ffffffffffffffffffffffffffffffffffffffff168152602001838152602001848152602001428152506004600060025481526020019081526020016000206000820151816000015560208201518160010160006101000a81548173ffffffffffffffffffffffffffffffffffffffff021916908373ffffffffffffffffffffffffffffffffffffffff16021790555060408201518160020160006101000a81548173ffffffffffffffffffffffffffffffffffffffff021916908373ffffffffffffffffffffffffffffffffffffffff160217905550606082015181600301556080820151816004015560a082015181600501559050508060040160009054906101000a900473ffffffffffffffffffffffffffffffffffffffff1673ffffffffffffffffffffffffffffffffffffffff166108fc82600301549081150290604051600060405180830381858888f19350505050158015610cb3573d6000803e3d6000fd5b507f000000000000000000000000000000000000000000000000000000000000000073ffffffffffffffffffffffffffffffffffffffff166108fc826003015484610cfe91906114e8565b9081150290604051600060405180830381858888f19350505050158015610d29573d6000803e3d6000fd5b50336003600085815260200190815260200160002060040160006101000a81548173ffffffffffffffffffffffffffffffffffffffff021916908373ffffffffffffffffffffffffffffffffffffffff16021790555060006003600085815260200190815260200160002060040160146101000a81548160ff0219169083151502179055508060010160009054906101000a900473ffffffffffffffffffffffffffffffffffffffff1673ffffffffffffffffffffffffffffffffffffffff166323b872dd303384600201546040518463ffffffff1660e01b8152600401610e13939291906111a2565b600060405180830381600087803b158015610e2d57600080fd5b505af1158015610e41573d6000803e3d6000fd5b505050503373ffffffffffffffffffffffffffffffffffffffff168160040160009054906101000a900473ffffffffffffffffffffffffffffffffffffffff1673ffffffffffffffffffffffffffffffffffffffff168260010160009054906101000a900473ffffffffffffffffffffffffffffffffffffffff1673ffffffffffffffffffffffffffffffffffffffff167f8b4c9c8a607d67b321582dd8461041b1dc2ceeca70c8b7f37f8e02095cf2e76d8685600201548660030154604051610f0d939291906113bf565b60405180910390a45050610f1f610f72565b50565b60026000541415610f68576040517f08c379a0000000000000000000000000000000000000000000000000000000008152600401610f5f90611299565b60405180910390fd5b6002600081905550565b6001600081905550565b600081359050610f8b81611798565b92915050565b600081359050610fa0816117af565b92915050565b60008060408385031215610fb957600080fd5b6000610fc785828601610f7c565b9250506020610fd885828601610f91565b9150509250929050565b600060208284031215610ff457600080fd5b600061100284828501610f91565b91505092915050565b6000806040838503121561101e57600080fd5b600061102c85828601610f91565b925050602061103d85828601610f91565b9150509250929050565b6110508161152e565b82525050565b61105f8161151c565b82525050565b61106e81611540565b82525050565b61107d81611588565b82525050565b60006110906016836113f6565b915061109b82611653565b602082019050919050565b60006110b36033836113f6565b91506110be8261167c565b604082019050919050565b60006110d6601c836113f6565b91506110e1826116cb565b602082019050919050565b60006110f96012836113f6565b9150611104826116f4565b602082019050919050565b600061111c6018836113f6565b91506111278261171d565b602082019050919050565b600061113f6015836113f6565b915061114a82611746565b602082019050919050565b6000611162601f836113f6565b915061116d8261176f565b602082019050919050565b6111818161157e565b82525050565b600060208201905061119c6000830184611047565b92915050565b60006060820190506111b76000830186611056565b6111c46020830185611056565b6111d16040830184611178565b949350505050565b600060208201905081810360008301526111f281611083565b9050919050565b60006020820190508181036000830152611212816110a6565b9050919050565b60006020820190508181036000830152611232816110c9565b9050919050565b60006020820190508181036000830152611252816110ec565b9050919050565b600060208201905081810360008301526112728161110f565b9050919050565b6000602082019050818103600083015261129281611132565b9050919050565b600060208201905081810360008301526112b281611155565b9050919050565b60006020820190506112ce6000830184611178565b92915050565b600060c0820190506112e96000830189611178565b6112f66020830188611056565b6113036040830187611056565b6113106060830186611178565b61131d6080830185611178565b61132a60a0830184611178565b979650505050505050565b600060c08201905061134a6000830189611178565b6113576020830188611074565b6113646040830187611178565b6113716060830186611178565b61137e6080830185611047565b61138b60a0830184611065565b979650505050505050565b60006040820190506113ab6000830185611178565b6113b86020830184611178565b9392505050565b60006060820190506113d46000830186611178565b6113e16020830185611178565b6113ee6040830184611178565b949350505050565b600082825260208201905092915050565b60006114128261157e565b915061141d8361157e565b9250827fffffffffffffffffffffffffffffffffffffffffffffffffffffffffffffffff03821115611452576114516115f5565b5b828201905092915050565b60006114688261157e565b91506114738361157e565b92508261148357611482611624565b5b828204905092915050565b60006114998261157e565b91506114a48361157e565b9250817fffffffffffffffffffffffffffffffffffffffffffffffffffffffffffffffff04831182151516156114dd576114dc6115f5565b5b828202905092915050565b60006114f38261157e565b91506114fe8361157e565b925082821015611511576115106115f5565b5b828203905092915050565b60006115278261155e565b9050919050565b60006115398261155e565b9050919050565b60008115159050919050565b60006115578261151c565b9050919050565b600073ffffffffffffffffffffffffffffffffffffffff82169050919050565b6000819050919050565b60006115938261159a565b9050919050565b60006115a58261155e565b9050919050565b60006115b78261157e565b91507fffffffffffffffffffffffffffffffffffffffffffffffffffffffffffffffff8214156115ea576115e96115f5565b5b600182019050919050565b7f4e487b7100000000000000000000000000000000000000000000000000000000600052601160045260246000fd5b7f4e487b7100000000000000000000000000000000000000000000000000000000600052601260045260246000fd5b7f596f7520646f6e2774206f776e2074686973206e667400000000000000000000600082015250565b7f6e6f7420656e6f75676820657468657220746f20636f766572206974656d207060008201527f7269636520616e64206d61726b65742066656500000000000000000000000000602082015250565b7f5072696365206d7573742062652067726561746572203e207a65726f00000000600082015250565b7f6974656d20646f65736e27742065786973740000000000000000000000000000600082015250565b7f596f7520616c7265616479206f776e20746865206e6674210000000000000000600082015250565b7f596f7520646f6e2774206f776e20746865206e66740000000000000000000000600082015250565b7f5265656e7472616e637947756172643a207265656e7472616e742063616c6c00600082015250565b6117a18161154c565b81146117ac57600080fd5b50565b6117b88161157e565b81146117c357600080fd5b5056fea2646970667358221220e38d67eea084978175616d916fd38e3377ae2d43d98a760a7777fec0f292224f64736f6c63430008040033",
  "linkReferences": {},
  "deployedLinkReferences": {}
}