{
  "_format": "hh-sol-artifact-1",
  "contractName": "Marketplace",
  "sourceName": "src/backend/contracts/Marketplace.sol",
  "abi": [
    {
      "inputs": [
        {
          "internalType": "uint256",
          "name": "_feePercent",
          "type": "uint256"
        }
      ],
      "stateMutability": "nonpayable",
      "type": "constructor"
    },
    {
      "anonymous": false,
      "inputs": [
        {
          "indexed": false,
          "internalType": "uint256",
          "name": "itemId",
          "type": "uint256"
        },
        {
          "indexed": true,
          "internalType": "address",
          "name": "nft",
          "type": "address"
        },
        {
          "indexed": false,
          "internalType": "uint256",
          "name": "tokenId",
          "type": "uint256"
        },
        {
          "indexed": false,
          "internalType": "uint256",
          "name": "price",
          "type": "uint256"
        },
        {
          "indexed": true,
          "internalType": "address",
          "name": "seller",
          "type": "address"
        },
        {
          "indexed": true,
          "internalType": "address",
          "name": "buyer",
          "type": "address"
        }
      ],
      "name": "Bought",
      "type": "event"
    },
    {
      "anonymous": false,
      "inputs": [
        {
          "indexed": false,
          "internalType": "uint256",
          "name": "itemId",
          "type": "uint256"
        },
        {
          "indexed": true,
          "internalType": "address",
          "name": "nft",
          "type": "address"
        },
        {
          "indexed": false,
          "internalType": "uint256",
          "name": "tokenId",
          "type": "uint256"
        },
        {
          "indexed": true,
          "internalType": "address",
          "name": "seller",
          "type": "address"
        }
      ],
      "name": "Minted",
      "type": "event"
    },
    {
      "anonymous": false,
      "inputs": [
        {
          "indexed": false,
          "internalType": "uint256",
          "name": "itemId",
          "type": "uint256"
        },
        {
          "indexed": false,
          "internalType": "uint256",
          "name": "price",
          "type": "uint256"
        },
        {
          "indexed": true,
          "internalType": "address",
          "name": "seller",
          "type": "address"
        }
      ],
      "name": "Offered",
      "type": "event"
    },
    {
      "anonymous": false,
      "inputs": [
        {
          "indexed": false,
          "internalType": "uint256",
          "name": "itemId",
          "type": "uint256"
        },
        {
          "indexed": true,
          "internalType": "address",
          "name": "seller",
          "type": "address"
        }
      ],
      "name": "Unlisted",
      "type": "event"
    },
    {
      "inputs": [],
      "name": "feeAccount",
      "outputs": [
        {
          "internalType": "address payable",
          "name": "",
          "type": "address"
        }
      ],
      "stateMutability": "view",
      "type": "function"
    },
    {
      "inputs": [],
      "name": "feePercent",
      "outputs": [
        {
          "internalType": "uint256",
          "name": "",
          "type": "uint256"
        }
      ],
      "stateMutability": "view",
      "type": "function"
    },
    {
      "inputs": [
        {
          "internalType": "uint256",
          "name": "_itemId",
          "type": "uint256"
        }
      ],
      "name": "getTotalPrice",
      "outputs": [
        {
          "internalType": "uint256",
          "name": "",
          "type": "uint256"
        }
      ],
      "stateMutability": "view",
      "type": "function"
    },
    {
      "inputs": [],
      "name": "itemCount",
      "outputs": [
        {
          "internalType": "uint256",
          "name": "",
          "type": "uint256"
        }
      ],
      "stateMutability": "view",
      "type": "function"
    },
    {
      "inputs": [
        {
          "internalType": "uint256",
          "name": "",
          "type": "uint256"
        }
      ],
      "name": "items",
      "outputs": [
        {
          "internalType": "uint256",
          "name": "itemId",
          "type": "uint256"
        },
        {
          "internalType": "contract IERC721",
          "name": "nft",
          "type": "address"
        },
        {
          "internalType": "uint256",
          "name": "tokenId",
          "type": "uint256"
        },
        {
          "internalType": "uint256",
          "name": "price",
          "type": "uint256"
        },
        {
          "internalType": "address payable",
          "name": "seller",
          "type": "address"
        },
        {
          "internalType": "bool",
          "name": "onSale",
          "type": "bool"
        }
      ],
      "stateMutability": "view",
      "type": "function"
    },
    {
      "inputs": [
        {
          "internalType": "uint256",
          "name": "id",
          "type": "uint256"
        },
        {
          "internalType": "uint256",
          "name": "_price",
          "type": "uint256"
        }
      ],
      "name": "listItem",
      "outputs": [],
      "stateMutability": "nonpayable",
      "type": "function"
    },
    {
      "inputs": [
        {
          "internalType": "contract IERC721",
          "name": "_nft",
          "type": "address"
        },
        {
          "internalType": "uint256",
          "name": "_tokenId",
          "type": "uint256"
        }
      ],
      "name": "makeItem",
      "outputs": [],
      "stateMutability": "nonpayable",
      "type": "function"
    },
    {
      "inputs": [
        {
          "internalType": "uint256",
          "name": "_itemId",
          "type": "uint256"
        }
      ],
      "name": "purchaseItem",
      "outputs": [],
      "stateMutability": "payable",
      "type": "function"
    },
    {
      "inputs": [
        {
          "internalType": "uint256",
          "name": "_tokenId",
          "type": "uint256"
        }
      ],
      "name": "unlistItem",
      "outputs": [],
      "stateMutability": "nonpayable",
      "type": "function"
    }
  ],
  "bytecode": "0x60c06040523480156200001157600080fd5b50604051620017123803806200171283398181016040528101906200003791906200009c565b60016000819055503373ffffffffffffffffffffffffffffffffffffffff1660808173ffffffffffffffffffffffffffffffffffffffff1660601b815250508060a0818152505050620000ec565b6000815190506200009681620000d2565b92915050565b600060208284031215620000af57600080fd5b6000620000bf8482850162000085565b91505092915050565b6000819050919050565b620000dd81620000c8565b8114620000e957600080fd5b50565b60805160601c60a0516115ef620001236000396000818161067101526108fd0152600081816106470152610b6401526115ef6000f3fe6080604052600436106100865760003560e01c80637fd6f15c116100595780637fd6f15c14610133578063883efa671461015e578063bfb231d214610187578063ca7dd375146101c9578063d38ea5bf1461020657610086565b80631a1beae21461008b5780635a599da8146100b457806365e17c9d146100dd5780636bfb0d0114610108575b600080fd5b34801561009757600080fd5b506100b260048036038101906100ad9190610dfa565b610222565b005b3480156100c057600080fd5b506100db60048036038101906100d69190610e36565b6104af565b005b3480156100e957600080fd5b506100f2610645565b6040516100ff9190610fdb565b60405180910390f35b34801561011457600080fd5b5061011d610669565b60405161012a919061110d565b60405180910390f35b34801561013f57600080fd5b5061014861066f565b604051610155919061110d565b60405180910390f35b34801561016a57600080fd5b5061018560048036038101906101809190610e5f565b610693565b005b34801561019357600080fd5b506101ae60048036038101906101a99190610e36565b61086e565b6040516101c096959493929190611128565b60405180910390f35b3480156101d557600080fd5b506101f060048036038101906101eb9190610e36565b6108f7565b6040516101fd919061110d565b60405180910390f35b610220600480360381019061021b9190610e36565b61095a565b005b60026000541415610268576040517f08c379a000000000000000000000000000000000000000000000000000000000815260040161025f906110ed565b60405180910390fd5b6002600081905550600160008154809291906102839061139f565b91905055508173ffffffffffffffffffffffffffffffffffffffff166323b872dd3330846040518463ffffffff1660e01b81526004016102c593929190610ff6565b600060405180830381600087803b1580156102df57600080fd5b505af11580156102f3573d6000803e3d6000fd5b505050506040518060c0016040528060015481526020018373ffffffffffffffffffffffffffffffffffffffff168152602001828152602001600081526020013373ffffffffffffffffffffffffffffffffffffffff168152602001600015158152506002600060015481526020019081526020016000206000820151816000015560208201518160010160006101000a81548173ffffffffffffffffffffffffffffffffffffffff021916908373ffffffffffffffffffffffffffffffffffffffff160217905550604082015181600201556060820151816003015560808201518160040160006101000a81548173ffffffffffffffffffffffffffffffffffffffff021916908373ffffffffffffffffffffffffffffffffffffffff16021790555060a08201518160040160146101000a81548160ff0219169083151502179055509050503373ffffffffffffffffffffffffffffffffffffffff168273ffffffffffffffffffffffffffffffffffffffff167fdc4ff8fb799fb85686d69faeffeb3cb658a4f64349069703ddd4e8bf2ab5f43e6001548460405161049b929190611189565b60405180910390a360016000819055505050565b600260005414156104f5576040517f08c379a00000000000000000000000000000000000000000000000000000000081526004016104ec906110ed565b60405180910390fd5b60026000819055506002600082815260200190815260200160002060040160009054906101000a900473ffffffffffffffffffffffffffffffffffffffff1673ffffffffffffffffffffffffffffffffffffffff163373ffffffffffffffffffffffffffffffffffffffff16146105a1576040517f08c379a00000000000000000000000000000000000000000000000000000000081526004016105989061102d565b60405180910390fd5b6000600260008381526020019081526020016000206003018190555060006002600083815260200190815260200160002060040160146101000a81548160ff0219169083151502179055503373ffffffffffffffffffffffffffffffffffffffff167f398bd90ce129393b9155d48dccffb325e671f45c4250de457462a019268ff1f082604051610632919061110d565b60405180910390a2600160008190555050565b7f000000000000000000000000000000000000000000000000000000000000000081565b60015481565b7f000000000000000000000000000000000000000000000000000000000000000081565b600260005414156106d9576040517f08c379a00000000000000000000000000000000000000000000000000000000081526004016106d0906110ed565b60405180910390fd5b600260008190555060008111610724576040517f08c379a000000000000000000000000000000000000000000000000000000000815260040161071b9061106d565b60405180910390fd5b6002600083815260200190815260200160002060040160009054906101000a900473ffffffffffffffffffffffffffffffffffffffff1673ffffffffffffffffffffffffffffffffffffffff163373ffffffffffffffffffffffffffffffffffffffff16146107c8576040517f08c379a00000000000000000000000000000000000000000000000000000000081526004016107bf906110cd565b60405180910390fd5b80600260008481526020019081526020016000206003018190555060016002600084815260200190815260200160002060040160146101000a81548160ff0219169083151502179055503373ffffffffffffffffffffffffffffffffffffffff167f1ab3864560512bcd762f59576711bc5e90d3ef93e9253b43cd6be191b4a5814e838360405161085a929190611189565b60405180910390a260016000819055505050565b60026020528060005260406000206000915090508060000154908060010160009054906101000a900473ffffffffffffffffffffffffffffffffffffffff16908060020154908060030154908060040160009054906101000a900473ffffffffffffffffffffffffffffffffffffffff16908060040160149054906101000a900460ff16905086565b600060647f0000000000000000000000000000000000000000000000000000000000000000606461092891906111fa565b60026000858152602001908152602001600020600301546109499190611281565b6109539190611250565b9050919050565b600260005414156109a0576040517f08c379a0000000000000000000000000000000000000000000000000000000008152600401610997906110ed565b60405180910390fd5b600260008190555060006109b3826108f7565b905060006002600084815260200190815260200160002090506000831180156109de57506001548311155b610a1d576040517f08c379a0000000000000000000000000000000000000000000000000000000008152600401610a149061108d565b60405180910390fd5b81341015610a60576040517f08c379a0000000000000000000000000000000000000000000000000000000008152600401610a579061104d565b60405180910390fd5b8060040160009054906101000a900473ffffffffffffffffffffffffffffffffffffffff1673ffffffffffffffffffffffffffffffffffffffff163373ffffffffffffffffffffffffffffffffffffffff161415610af3576040517f08c379a0000000000000000000000000000000000000000000000000000000008152600401610aea906110ad565b60405180910390fd5b8060040160009054906101000a900473ffffffffffffffffffffffffffffffffffffffff1673ffffffffffffffffffffffffffffffffffffffff166108fc82600301549081150290604051600060405180830381858888f19350505050158015610b61573d6000803e3d6000fd5b507f000000000000000000000000000000000000000000000000000000000000000073ffffffffffffffffffffffffffffffffffffffff166108fc826003015484610bac91906112db565b9081150290604051600060405180830381858888f19350505050158015610bd7573d6000803e3d6000fd5b50336002600085815260200190815260200160002060040160006101000a81548173ffffffffffffffffffffffffffffffffffffffff021916908373ffffffffffffffffffffffffffffffffffffffff16021790555060006002600085815260200190815260200160002060040160146101000a81548160ff0219169083151502179055508060010160009054906101000a900473ffffffffffffffffffffffffffffffffffffffff1673ffffffffffffffffffffffffffffffffffffffff166323b872dd303384600201546040518463ffffffff1660e01b8152600401610cc193929190610ff6565b600060405180830381600087803b158015610cdb57600080fd5b505af1158015610cef573d6000803e3d6000fd5b505050503373ffffffffffffffffffffffffffffffffffffffff168160040160009054906101000a900473ffffffffffffffffffffffffffffffffffffffff1673ffffffffffffffffffffffffffffffffffffffff168260010160009054906101000a900473ffffffffffffffffffffffffffffffffffffffff1673ffffffffffffffffffffffffffffffffffffffff167f8b4c9c8a607d67b321582dd8461041b1dc2ceeca70c8b7f37f8e02095cf2e76d8685600201548660030154604051610dbb939291906111b2565b60405180910390a45050600160008190555050565b600081359050610ddf8161158b565b92915050565b600081359050610df4816115a2565b92915050565b60008060408385031215610e0d57600080fd5b6000610e1b85828601610dd0565b9250506020610e2c85828601610de5565b9150509250929050565b600060208284031215610e4857600080fd5b6000610e5684828501610de5565b91505092915050565b60008060408385031215610e7257600080fd5b6000610e8085828601610de5565b9250506020610e9185828601610de5565b9150509250929050565b610ea481611321565b82525050565b610eb38161130f565b82525050565b610ec281611333565b82525050565b610ed18161137b565b82525050565b6000610ee46016836111e9565b9150610eef82611446565b602082019050919050565b6000610f076033836111e9565b9150610f128261146f565b604082019050919050565b6000610f2a601c836111e9565b9150610f35826114be565b602082019050919050565b6000610f4d6012836111e9565b9150610f58826114e7565b602082019050919050565b6000610f706018836111e9565b9150610f7b82611510565b602082019050919050565b6000610f936015836111e9565b9150610f9e82611539565b602082019050919050565b6000610fb6601f836111e9565b9150610fc182611562565b602082019050919050565b610fd581611371565b82525050565b6000602082019050610ff06000830184610e9b565b92915050565b600060608201905061100b6000830186610eaa565b6110186020830185610eaa565b6110256040830184610fcc565b949350505050565b6000602082019050818103600083015261104681610ed7565b9050919050565b6000602082019050818103600083015261106681610efa565b9050919050565b6000602082019050818103600083015261108681610f1d565b9050919050565b600060208201905081810360008301526110a681610f40565b9050919050565b600060208201905081810360008301526110c681610f63565b9050919050565b600060208201905081810360008301526110e681610f86565b9050919050565b6000602082019050818103600083015261110681610fa9565b9050919050565b60006020820190506111226000830184610fcc565b92915050565b600060c08201905061113d6000830189610fcc565b61114a6020830188610ec8565b6111576040830187610fcc565b6111646060830186610fcc565b6111716080830185610e9b565b61117e60a0830184610eb9565b979650505050505050565b600060408201905061119e6000830185610fcc565b6111ab6020830184610fcc565b9392505050565b60006060820190506111c76000830186610fcc565b6111d46020830185610fcc565b6111e16040830184610fcc565b949350505050565b600082825260208201905092915050565b600061120582611371565b915061121083611371565b9250827fffffffffffffffffffffffffffffffffffffffffffffffffffffffffffffffff03821115611245576112446113e8565b5b828201905092915050565b600061125b82611371565b915061126683611371565b92508261127657611275611417565b5b828204905092915050565b600061128c82611371565b915061129783611371565b9250817fffffffffffffffffffffffffffffffffffffffffffffffffffffffffffffffff04831182151516156112d0576112cf6113e8565b5b828202905092915050565b60006112e682611371565b91506112f183611371565b925082821015611304576113036113e8565b5b828203905092915050565b600061131a82611351565b9050919050565b600061132c82611351565b9050919050565b60008115159050919050565b600061134a8261130f565b9050919050565b600073ffffffffffffffffffffffffffffffffffffffff82169050919050565b6000819050919050565b60006113868261138d565b9050919050565b600061139882611351565b9050919050565b60006113aa82611371565b91507fffffffffffffffffffffffffffffffffffffffffffffffffffffffffffffffff8214156113dd576113dc6113e8565b5b600182019050919050565b7f4e487b7100000000000000000000000000000000000000000000000000000000600052601160045260246000fd5b7f4e487b7100000000000000000000000000000000000000000000000000000000600052601260045260246000fd5b7f596f7520646f6e2774206f776e2074686973206e667400000000000000000000600082015250565b7f6e6f7420656e6f75676820657468657220746f20636f766572206974656d207060008201527f7269636520616e64206d61726b65742066656500000000000000000000000000602082015250565b7f5072696365206d7573742062652067726561746572203e207a65726f00000000600082015250565b7f6974656d20646f65736e27742065786973740000000000000000000000000000600082015250565b7f596f7520616c7265616479206f776e20746865206e6674210000000000000000600082015250565b7f596f7520646f6e2774206f776e20746865206e66740000000000000000000000600082015250565b7f5265656e7472616e637947756172643a207265656e7472616e742063616c6c00600082015250565b6115948161133f565b811461159f57600080fd5b50565b6115ab81611371565b81146115b657600080fd5b5056fea2646970667358221220d59aceb2036a6bd7be31c398d082b7a687fe6ecba33ccb8e14a2033ccfaad75d64736f6c63430008040033",
  "linkReferences": {},
  "deployedLinkReferences": {}
}