{
  "_format": "hh-sol-artifact-1",
  "contractName": "Marketplace",
  "sourceName": "src/backend/contracts/Marketplace.sol",
  "abi": [
    {
      "inputs": [
        {
          "internalType": "uint256",
          "name": "_feePercent",
          "type": "uint256"
        }
      ],
      "stateMutability": "nonpayable",
      "type": "constructor"
    },
    {
      "anonymous": false,
      "inputs": [
        {
          "indexed": false,
          "internalType": "uint256",
          "name": "itemId",
          "type": "uint256"
        },
        {
          "indexed": true,
          "internalType": "address",
          "name": "nft",
          "type": "address"
        },
        {
          "indexed": false,
          "internalType": "uint256",
          "name": "tokenId",
          "type": "uint256"
        },
        {
          "indexed": false,
          "internalType": "uint256",
          "name": "price",
          "type": "uint256"
        },
        {
          "indexed": true,
          "internalType": "address",
          "name": "seller",
          "type": "address"
        },
        {
          "indexed": true,
          "internalType": "address",
          "name": "buyer",
          "type": "address"
        }
      ],
      "name": "Bought",
      "type": "event"
    },
    {
      "anonymous": false,
      "inputs": [
        {
          "indexed": false,
          "internalType": "uint256",
          "name": "itemId",
          "type": "uint256"
        },
        {
          "indexed": true,
          "internalType": "address",
          "name": "nft",
          "type": "address"
        },
        {
          "indexed": false,
          "internalType": "uint256",
          "name": "tokenId",
          "type": "uint256"
        },
        {
          "indexed": true,
          "internalType": "address",
          "name": "seller",
          "type": "address"
        }
      ],
      "name": "Minted",
      "type": "event"
    },
    {
      "anonymous": false,
      "inputs": [
        {
          "indexed": false,
          "internalType": "uint256",
          "name": "itemId",
          "type": "uint256"
        },
        {
          "indexed": false,
          "internalType": "uint256",
          "name": "price",
          "type": "uint256"
        },
        {
          "indexed": true,
          "internalType": "address",
          "name": "seller",
          "type": "address"
        }
      ],
      "name": "Offered",
      "type": "event"
    },
    {
      "inputs": [],
      "name": "feeAccount",
      "outputs": [
        {
          "internalType": "address payable",
          "name": "",
          "type": "address"
        }
      ],
      "stateMutability": "view",
      "type": "function"
    },
    {
      "inputs": [],
      "name": "feePercent",
      "outputs": [
        {
          "internalType": "uint256",
          "name": "",
          "type": "uint256"
        }
      ],
      "stateMutability": "view",
      "type": "function"
    },
    {
      "inputs": [
        {
          "internalType": "uint256",
          "name": "_itemId",
          "type": "uint256"
        }
      ],
      "name": "getTotalPrice",
      "outputs": [
        {
          "internalType": "uint256",
          "name": "",
          "type": "uint256"
        }
      ],
      "stateMutability": "view",
      "type": "function"
    },
    {
      "inputs": [],
      "name": "itemCount",
      "outputs": [
        {
          "internalType": "uint256",
          "name": "",
          "type": "uint256"
        }
      ],
      "stateMutability": "view",
      "type": "function"
    },
    {
      "inputs": [
        {
          "internalType": "uint256",
          "name": "",
          "type": "uint256"
        }
      ],
      "name": "items",
      "outputs": [
        {
          "internalType": "uint256",
          "name": "itemId",
          "type": "uint256"
        },
        {
          "internalType": "contract IERC721",
          "name": "nft",
          "type": "address"
        },
        {
          "internalType": "uint256",
          "name": "tokenId",
          "type": "uint256"
        },
        {
          "internalType": "uint256",
          "name": "price",
          "type": "uint256"
        },
        {
          "internalType": "address payable",
          "name": "seller",
          "type": "address"
        },
        {
          "internalType": "bool",
          "name": "onSale",
          "type": "bool"
        }
      ],
      "stateMutability": "view",
      "type": "function"
    },
    {
      "inputs": [
        {
          "internalType": "uint256",
          "name": "id",
          "type": "uint256"
        },
        {
          "internalType": "uint256",
          "name": "_price",
          "type": "uint256"
        }
      ],
      "name": "listItem",
      "outputs": [],
      "stateMutability": "nonpayable",
      "type": "function"
    },
    {
      "inputs": [
        {
          "internalType": "contract IERC721",
          "name": "_nft",
          "type": "address"
        },
        {
          "internalType": "uint256",
          "name": "_tokenId",
          "type": "uint256"
        }
      ],
      "name": "makeItem",
      "outputs": [],
      "stateMutability": "nonpayable",
      "type": "function"
    },
    {
      "inputs": [
        {
          "internalType": "uint256",
          "name": "_itemId",
          "type": "uint256"
        }
      ],
      "name": "purchaseItem",
      "outputs": [],
      "stateMutability": "payable",
      "type": "function"
    }
  ],
  "bytecode": "0x60c060405234801561001057600080fd5b5060405161134538038061134583398181016040528101906100329190610094565b60016000819055503373ffffffffffffffffffffffffffffffffffffffff1660808173ffffffffffffffffffffffffffffffffffffffff1660601b815250508060a08181525050506100de565b60008151905061008e816100c7565b92915050565b6000602082840312156100a657600080fd5b60006100b48482850161007f565b91505092915050565b6000819050919050565b6100d0816100bd565b81146100db57600080fd5b50565b60805160601c60a051611231610114600039600081816104610152610603015260008181610437015261082401526112316000f3fe60806040526004361061007b5760003560e01c8063883efa671161004e578063883efa671461012a578063bfb231d214610153578063ca7dd37514610195578063d38ea5bf146101d25761007b565b80631a1beae21461008057806365e17c9d146100a95780636bfb0d01146100d45780637fd6f15c146100ff575b600080fd5b34801561008c57600080fd5b506100a760048036038101906100a29190610b14565b6101ee565b005b3480156100b557600080fd5b506100be610435565b6040516100cb9190610caf565b60405180910390f35b3480156100e057600080fd5b506100e9610459565b6040516100f69190610da1565b60405180910390f35b34801561010b57600080fd5b5061011461045f565b6040516101219190610da1565b60405180910390f35b34801561013657600080fd5b50610151600480360381019061014c9190610b79565b610483565b005b34801561015f57600080fd5b5061017a60048036038101906101759190610b50565b610574565b60405161018c96959493929190610dbc565b60405180910390f35b3480156101a157600080fd5b506101bc60048036038101906101b79190610b50565b6105fd565b6040516101c99190610da1565b60405180910390f35b6101ec60048036038101906101e79190610b50565b610660565b005b6101f6610a90565b6001600081548092919061020990611033565b91905055508173ffffffffffffffffffffffffffffffffffffffff166323b872dd3330846040518463ffffffff1660e01b815260040161024b93929190610cca565b600060405180830381600087803b15801561026557600080fd5b505af1158015610279573d6000803e3d6000fd5b505050506040518060c0016040528060015481526020018373ffffffffffffffffffffffffffffffffffffffff168152602001828152602001600081526020013373ffffffffffffffffffffffffffffffffffffffff168152602001600015158152506002600060015481526020019081526020016000206000820151816000015560208201518160010160006101000a81548173ffffffffffffffffffffffffffffffffffffffff021916908373ffffffffffffffffffffffffffffffffffffffff160217905550604082015181600201556060820151816003015560808201518160040160006101000a81548173ffffffffffffffffffffffffffffffffffffffff021916908373ffffffffffffffffffffffffffffffffffffffff16021790555060a08201518160040160146101000a81548160ff0219169083151502179055509050503373ffffffffffffffffffffffffffffffffffffffff168273ffffffffffffffffffffffffffffffffffffffff167fdc4ff8fb799fb85686d69faeffeb3cb658a4f64349069703ddd4e8bf2ab5f43e60015484604051610421929190610e1d565b60405180910390a3610431610ae0565b5050565b7f000000000000000000000000000000000000000000000000000000000000000081565b60015481565b7f000000000000000000000000000000000000000000000000000000000000000081565b61048b610a90565b600081116104ce576040517f08c379a00000000000000000000000000000000000000000000000000000000081526004016104c590610d21565b60405180910390fd5b80600260008481526020019081526020016000206003018190555060016002600084815260200190815260200160002060040160146101000a81548160ff0219169083151502179055503373ffffffffffffffffffffffffffffffffffffffff167f1ab3864560512bcd762f59576711bc5e90d3ef93e9253b43cd6be191b4a5814e8383604051610560929190610e1d565b60405180910390a2610570610ae0565b5050565b60026020528060005260406000206000915090508060000154908060010160009054906101000a900473ffffffffffffffffffffffffffffffffffffffff16908060020154908060030154908060040160009054906101000a900473ffffffffffffffffffffffffffffffffffffffff16908060040160149054906101000a900460ff16905086565b600060647f0000000000000000000000000000000000000000000000000000000000000000606461062e9190610e8e565b600260008581526020019081526020016000206003015461064f9190610f15565b6106599190610ee4565b9050919050565b610668610a90565b6000610673826105fd565b9050600060026000848152602001908152602001600020905060008311801561069e57506001548311155b6106dd576040517f08c379a00000000000000000000000000000000000000000000000000000000081526004016106d490610d41565b60405180910390fd5b81341015610720576040517f08c379a000000000000000000000000000000000000000000000000000000000815260040161071790610d01565b60405180910390fd5b8060040160009054906101000a900473ffffffffffffffffffffffffffffffffffffffff1673ffffffffffffffffffffffffffffffffffffffff163373ffffffffffffffffffffffffffffffffffffffff1614156107b3576040517f08c379a00000000000000000000000000000000000000000000000000000000081526004016107aa90610d61565b60405180910390fd5b8060040160009054906101000a900473ffffffffffffffffffffffffffffffffffffffff1673ffffffffffffffffffffffffffffffffffffffff166108fc82600301549081150290604051600060405180830381858888f19350505050158015610821573d6000803e3d6000fd5b507f000000000000000000000000000000000000000000000000000000000000000073ffffffffffffffffffffffffffffffffffffffff166108fc82600301548461086c9190610f6f565b9081150290604051600060405180830381858888f19350505050158015610897573d6000803e3d6000fd5b50336002600085815260200190815260200160002060040160006101000a81548173ffffffffffffffffffffffffffffffffffffffff021916908373ffffffffffffffffffffffffffffffffffffffff16021790555060006002600085815260200190815260200160002060040160146101000a81548160ff0219169083151502179055508060010160009054906101000a900473ffffffffffffffffffffffffffffffffffffffff1673ffffffffffffffffffffffffffffffffffffffff166323b872dd303384600201546040518463ffffffff1660e01b815260040161098193929190610cca565b600060405180830381600087803b15801561099b57600080fd5b505af11580156109af573d6000803e3d6000fd5b505050503373ffffffffffffffffffffffffffffffffffffffff168160040160009054906101000a900473ffffffffffffffffffffffffffffffffffffffff1673ffffffffffffffffffffffffffffffffffffffff168260010160009054906101000a900473ffffffffffffffffffffffffffffffffffffffff1673ffffffffffffffffffffffffffffffffffffffff167f8b4c9c8a607d67b321582dd8461041b1dc2ceeca70c8b7f37f8e02095cf2e76d8685600201548660030154604051610a7b93929190610e46565b60405180910390a45050610a8d610ae0565b50565b60026000541415610ad6576040517f08c379a0000000000000000000000000000000000000000000000000000000008152600401610acd90610d81565b60405180910390fd5b6002600081905550565b6001600081905550565b600081359050610af9816111cd565b92915050565b600081359050610b0e816111e4565b92915050565b60008060408385031215610b2757600080fd5b6000610b3585828601610aea565b9250506020610b4685828601610aff565b9150509250929050565b600060208284031215610b6257600080fd5b6000610b7084828501610aff565b91505092915050565b60008060408385031215610b8c57600080fd5b6000610b9a85828601610aff565b9250506020610bab85828601610aff565b9150509250929050565b610bbe81610fb5565b82525050565b610bcd81610fa3565b82525050565b610bdc81610fc7565b82525050565b610beb8161100f565b82525050565b6000610bfe603383610e7d565b9150610c09826110da565b604082019050919050565b6000610c21601c83610e7d565b9150610c2c82611129565b602082019050919050565b6000610c44601283610e7d565b9150610c4f82611152565b602082019050919050565b6000610c67601883610e7d565b9150610c728261117b565b602082019050919050565b6000610c8a601f83610e7d565b9150610c95826111a4565b602082019050919050565b610ca981611005565b82525050565b6000602082019050610cc46000830184610bb5565b92915050565b6000606082019050610cdf6000830186610bc4565b610cec6020830185610bc4565b610cf96040830184610ca0565b949350505050565b60006020820190508181036000830152610d1a81610bf1565b9050919050565b60006020820190508181036000830152610d3a81610c14565b9050919050565b60006020820190508181036000830152610d5a81610c37565b9050919050565b60006020820190508181036000830152610d7a81610c5a565b9050919050565b60006020820190508181036000830152610d9a81610c7d565b9050919050565b6000602082019050610db66000830184610ca0565b92915050565b600060c082019050610dd16000830189610ca0565b610dde6020830188610be2565b610deb6040830187610ca0565b610df86060830186610ca0565b610e056080830185610bb5565b610e1260a0830184610bd3565b979650505050505050565b6000604082019050610e326000830185610ca0565b610e3f6020830184610ca0565b9392505050565b6000606082019050610e5b6000830186610ca0565b610e686020830185610ca0565b610e756040830184610ca0565b949350505050565b600082825260208201905092915050565b6000610e9982611005565b9150610ea483611005565b9250827fffffffffffffffffffffffffffffffffffffffffffffffffffffffffffffffff03821115610ed957610ed861107c565b5b828201905092915050565b6000610eef82611005565b9150610efa83611005565b925082610f0a57610f096110ab565b5b828204905092915050565b6000610f2082611005565b9150610f2b83611005565b9250817fffffffffffffffffffffffffffffffffffffffffffffffffffffffffffffffff0483118215151615610f6457610f6361107c565b5b828202905092915050565b6000610f7a82611005565b9150610f8583611005565b925082821015610f9857610f9761107c565b5b828203905092915050565b6000610fae82610fe5565b9050919050565b6000610fc082610fe5565b9050919050565b60008115159050919050565b6000610fde82610fa3565b9050919050565b600073ffffffffffffffffffffffffffffffffffffffff82169050919050565b6000819050919050565b600061101a82611021565b9050919050565b600061102c82610fe5565b9050919050565b600061103e82611005565b91507fffffffffffffffffffffffffffffffffffffffffffffffffffffffffffffffff8214156110715761107061107c565b5b600182019050919050565b7f4e487b7100000000000000000000000000000000000000000000000000000000600052601160045260246000fd5b7f4e487b7100000000000000000000000000000000000000000000000000000000600052601260045260246000fd5b7f6e6f7420656e6f75676820657468657220746f20636f766572206974656d207060008201527f7269636520616e64206d61726b65742066656500000000000000000000000000602082015250565b7f5072696365206d7573742062652067726561746572203e207a65726f00000000600082015250565b7f6974656d20646f65736e27742065786973740000000000000000000000000000600082015250565b7f596f7520616c7265616479206f776e20746865206e6674210000000000000000600082015250565b7f5265656e7472616e637947756172643a207265656e7472616e742063616c6c00600082015250565b6111d681610fd3565b81146111e157600080fd5b50565b6111ed81611005565b81146111f857600080fd5b5056fea26469706673582212206aa4b1d4dfab242a0adebb53204de0cfe0162df068fcbe99557ba9a0122fa11d64736f6c63430008040033",
  "linkReferences": {},
  "deployedLinkReferences": {}
}